1|8=FIX.4.4^A9=88^A35=A^A49=YOFX2^A56=YOFX^A34=1^A52=20260119-13:51:34.547^A98=0^A108=30^A553=YOFX2^A554=Brand#143^A10=155^A
2|8=FIX.4.4^A9=90^A35=x^A49=YOFX2^A56=YOFX^A34=2^A52=20260119-13:51:35.485^A320=SECLIST_1768830695485815600^A559=4^A10=044^A
3|8=FIX.4.4^A9=132^A35=V^A49=YOFX2^A56=YOFX^A34=3^A52=20260119-13:51:37.486^A262=MD_EURUSD_1768830697486440300^A263=1^A264=0^A267=2^A269=0^A269=1^A146=1^A55=EURUSD^A10=162^A
4|8=FIX.4.4^A9=132^A35=V^A49=YOFX2^A56=YOFX^A34=4^A52=20260119-13:51:37.587^A262=MD_GBPUSD_1768830697587179000^A263=1^A264=0^A267=2^A269=0^A269=1^A146=1^A55=GBPUSD^A10=135^A
5|8=FIX.4.4^A9=132^A35=V^A49=YOFX2^A56=YOFX^A34=5^A52=20260119-13:51:37.687^A262=MD_USDJPY_1768830697687942100^A263=1^A264=0^A267=2^A269=0^A269=1^A146=1^A55=USDJPY^A10=189^A
6|8=FIX.4.4^A9=52^A35=0^A49=YOFX2^A56=YOFX^A34=6^A52=20260119-13:52:04.858^A10=159^A
8|8=FIX.4.4^A9=88^A35=A^A49=YOFX2^A56=YOFX^A34=8^A52=20260119-14:10:02.952^A98=0^A108=30^A553=YOFX2^A554=Brand#143^A10=153^A
9|8=FIX.4.4^A9=90^A35=x^A49=YOFX2^A56=YOFX^A34=9^A52=20260119-14:10:03.861^A320=SECLIST_1768831803861644000^A559=4^A10=024^A
10|8=FIX.4.4^A9=133^A35=V^A49=YOFX2^A56=YOFX^A34=10^A52=20260119-14:10:05.865^A262=MD_EURUSD_1768831805864775300^A263=1^A264=0^A267=2^A269=0^A269=1^A146=1^A55=EURUSD^A10=204^A
11|8=FIX.4.4^A9=133^A35=V^A49=YOFX2^A56=YOFX^A34=11^A52=20260119-14:10:05.971^A262=MD_GBPUSD_1768831805971982400^A263=1^A264=0^A267=2^A269=0^A269=1^A146=1^A55=GBPUSD^A10=165^A
12|8=FIX.4.4^A9=133^A35=V^A49=YOFX2^A56=YOFX^A34=12^A52=20260119-14:10:06.072^A262=MD_USDJPY_1768831806072830300^A263=1^A264=0^A267=2^A269=0^A269=1^A146=1^A55=USDJPY^A10=195^A
13|8=FIX.4.4^A9=53^A35=0^A49=YOFX2^A56=YOFX^A34=13^A52=20260119-14:10:33.274^A10=195^A
14|8=FIX.4.4^A9=62^A35=0^A49=YOFX2^A56=YOFX^A34=14^A52=20260119-14:10:39.968^A112=TEST^A10=230^A
15|8=FIX.4.4^A9=89^A35=A^A49=YOFX2^A56=YOFX^A34=15^A52=20260119-14:11:16.120^A98=0^A108=30^A553=YOFX2^A554=Brand#143^A10=193^A
16|8=FIX.4.4^A9=91^A35=x^A49=YOFX2^A56=YOFX^A34=16^A52=20260119-14:11:17.269^A320=SECLIST_1768831877269322300^A559=4^A10=088^A
17|8=FIX.4.4^A9=133^A35=V^A49=YOFX2^A56=YOFX^A34=17^A52=20260119-14:11:19.270^A262=MD_EURUSD_1768831879270096200^A263=1^A264=0^A267=2^A269=0^A269=1^A146=1^A55=EURUSD^A10=204^A
18|8=FIX.4.4^A9=133^A35=V^A49=YOFX2^A56=YOFX^A34=18^A52=20260119-14:11:19.371^A262=MD_GBPUSD_1768831879371220000^A263=1^A264=0^A267=2^A269=0^A269=1^A146=1^A55=GBPUSD^A10=158^A
19|8=FIX.4.4^A9=133^A35=V^A49=YOFX2^A56=YOFX^A34=19^A52=20260119-14:11:19.472^A262=MD_USDJPY_1768831879472066100^A263=1^A264=0^A267=2^A269=0^A269=1^A146=1^A55=USDJPY^A10=224^A
20|8=FIX.4.4^A9=53^A35=0^A49=YOFX2^A56=YOFX^A34=20^A52=20260119-14:11:46.356^A10=199^A
21|8=FIX.4.4^A9=62^A35=0^A49=YOFX2^A56=YOFX^A34=21^A52=20260119-14:11:53.093^A112=TEST^A10=214^A
1|8=FIX.4.4^A9=88^A35=A^A49=YOFX2^A56=YOFX^A34=1^A52=20260119-14:12:07.588^A98=0^A108=30^A553=YOFX2^A554=Brand#143^A10=158^A
2|8=FIX.4.4^A9=90^A35=x^A49=YOFX2^A56=YOFX^A34=2^A52=20260119-14:12:08.768^A320=SECLIST_1768831928768722600^A559=4^A10=047^A
3|8=FIX.4.4^A9=132^A35=V^A49=YOFX2^A56=YOFX^A34=3^A52=20260119-14:12:10.769^A262=MD_EURUSD_1768831930769830900^A263=1^A264=0^A267=2^A269=0^A269=1^A146=1^A55=EURUSD^A10=159^A
4|8=FIX.4.4^A9=132^A35=V^A49=YOFX2^A56=YOFX^A34=4^A52=20260119-14:12:10.870^A262=MD_GBPUSD_1768831930870997200^A263=1^A264=0^A267=2^A269=0^A269=1^A146=1^A55=GBPUSD^A10=115^A
5|8=FIX.4.4^A9=132^A35=V^A49=YOFX2^A56=YOFX^A34=5^A52=20260119-14:12:10.971^A262=MD_USDJPY_1768831930971780200^A263=1^A264=0^A267=2^A269=0^A269=1^A146=1^A55=USDJPY^A10=162^A
6|8=FIX.4.4^A9=52^A35=0^A49=YOFX2^A56=YOFX^A34=6^A52=20260119-14:12:37.800^A10=149^A
7|8=FIX.4.4^A9=52^A35=0^A49=YOFX2^A56=YOFX^A34=7^A52=20260119-14:13:07.800^A10=148^A
8|8=FIX.4.4^A9=88^A35=A^A49=YOFX2^A56=YOFX^A34=8^A52=20260119-14:13:36.167^A98=0^A108=30^A553=YOFX2^A554=Brand#143^A10=161^A
254|8=FIX.4.4^A9=92^A35=x^A49=YOFX2^A56=YOFX^A34=254^A52=20260119-14:13:37.448^A320=SECLIST_1768832017448449600^A559=4^A10=143^A
3879|8=FIX.4.4^A9=135^A35=V^A49=YOFX2^A56=YOFX^A34=3879^A52=20260119-14:13:39.449^A262=MD_EURUSD_1768832019449277100^A263=1^A264=0^A267=2^A269=0^A269=1^A146=1^A55=EURUSD^A10=072^A
4088|8=FIX.4.4^A9=135^A35=V^A49=YOFX2^A56=YOFX^A34=4088^A52=20260119-14:13:39.550^A262=MD_GBPUSD_1768832019550002400^A263=1^A264=0^A267=2^A269=0^A269=1^A146=1^A55=GBPUSD^A10=002^A
4306|8=FIX.4.4^A9=135^A35=V^A49=YOFX2^A56=YOFX^A34=4306^A52=20260119-14:13:39.650^A262=MD_USDJPY_1768832019650237400^A263=1^A264=0^A267=2^A269=0^A269=1^A146=1^A55=USDJPY^A10=059^A
55582|8=FIX.4.4^A9=56^A35=0^A49=YOFX2^A56=YOFX^A34=55582^A52=20260119-14:14:06.368^A10=115^A
118543|8=FIX.4.4^A9=57^A35=0^A49=YOFX2^A56=YOFX^A34=118543^A52=20260119-14:14:36.369^A10=165^A
182093|8=FIX.4.4^A9=57^A35=0^A49=YOFX2^A56=YOFX^A34=182093^A52=20260119-14:15:06.368^A10=163^A
250224|8=FIX.4.4^A9=57^A35=0^A49=YOFX2^A56=YOFX^A34=250224^A52=20260119-14:15:36.369^A10=159^A
314814|8=FIX.4.4^A9=57^A35=0^A49=YOFX2^A56=YOFX^A34=314814^A52=20260119-14:16:06.369^A10=163^A
375914|8=FIX.4.4^A9=57^A35=0^A49=YOFX2^A56=YOFX^A34=375914^A52=20260119-14:16:36.369^A10=174^A
458764|8=FIX.4.4^A9=66^A35=0^A49=YOFX2^A56=YOFX^A34=458764^A52=20260119-14:17:02.045^A112=TEST^A10=182^A
1|8=FIX.4.4^A9=88^A35=A^A49=YOFX2^A56=YOFX^A34=1^A52=20260119-14:18:29.262^A98=0^A108=30^A553=YOFX2^A554=Brand#143^A10=157^A
2|8=FIX.4.4^A9=90^A35=x^A49=YOFX2^A56=YOFX^A34=2^A52=20260119-14:18:30.284^A320=SECLIST_1768832310284792800^A559=4^A10=029^A
3|8=FIX.4.4^A9=132^A35=V^A49=YOFX2^A56=YOFX^A34=3^A52=20260119-14:18:32.286^A262=MD_EURUSD_1768832312285805600^A263=1^A264=0^A267=2^A269=0^A269=1^A146=1^A55=EURUSD^A10=150^A
4|8=FIX.4.4^A9=132^A35=V^A49=YOFX2^A56=YOFX^A34=4^A52=20260119-14:18:32.386^A262=MD_GBPUSD_1768832312386551500^A263=1^A264=0^A267=2^A269=0^A269=1^A146=1^A55=GBPUSD^A10=113^A
5|8=FIX.4.4^A9=132^A35=V^A49=YOFX2^A56=YOFX^A34=5^A52=20260119-14:18:32.487^A262=MD_USDJPY_1768832312487541900^A263=1^A264=0^A267=2^A269=0^A269=1^A146=1^A55=USDJPY^A10=173^A
6|8=FIX.4.4^A9=52^A35=0^A49=YOFX2^A56=YOFX^A34=6^A52=20260119-14:18:59.505^A10=161^A
7|8=FIX.4.4^A9=52^A35=0^A49=YOFX2^A56=YOFX^A34=7^A52=20260119-14:19:29.502^A10=157^A
8|8=FIX.4.4^A9=52^A35=0^A49=YOFX2^A56=YOFX^A34=8^A52=20260119-14:19:59.502^A10=161^A
9|8=FIX.4.4^A9=52^A35=0^A49=YOFX2^A56=YOFX^A34=9^A52=20260119-14:20:29.502^A10=151^A
10|8=FIX.4.4^A9=53^A35=0^A49=YOFX2^A56=YOFX^A34=10^A52=20260119-14:20:59.502^A10=195^A
11|8=FIX.4.4^A9=53^A35=0^A49=YOFX2^A56=YOFX^A34=11^A52=20260119-14:21:29.502^A10=194^A
12|8=FIX.4.4^A9=53^A35=0^A49=YOFX2^A56=YOFX^A34=12^A52=20260119-14:21:59.502^A10=198^A
13|8=FIX.4.4^A9=53^A35=0^A49=YOFX2^A56=YOFX^A34=13^A52=20260119-14:22:29.502^A10=197^A
14|8=FIX.4.4^A9=53^A35=0^A49=YOFX2^A56=YOFX^A34=14^A52=20260119-14:22:59.502^A10=201^A
15|8=FIX.4.4^A9=53^A35=0^A49=YOFX2^A56=YOFX^A34=15^A52=20260119-14:23:29.502^A10=200^A
16|8=FIX.4.4^A9=53^A35=0^A49=YOFX2^A56=YOFX^A34=16^A52=20260119-14:23:59.502^A10=204^A
17|8=FIX.4.4^A9=53^A35=0^A49=YOFX2^A56=YOFX^A34=17^A52=20260119-14:24:29.502^A10=203^A
18|8=FIX.4.4^A9=53^A35=0^A49=YOFX2^A56=YOFX^A34=18^A52=20260119-14:24:59.502^A10=207^A
19|8=FIX.4.4^A9=53^A35=0^A49=YOFX2^A56=YOFX^A34=19^A52=20260119-14:25:29.502^A10=206^A
20|8=FIX.4.4^A9=53^A35=0^A49=YOFX2^A56=YOFX^A34=20^A52=20260119-14:25:59.502^A10=201^A
21|8=FIX.4.4^A9=53^A35=0^A49=YOFX2^A56=YOFX^A34=21^A52=20260119-14:26:29.502^A10=200^A
22|8=FIX.4.4^A9=53^A35=0^A49=YOFX2^A56=YOFX^A34=22^A52=20260119-14:26:59.502^A10=204^A
23|8=FIX.4.4^A9=53^A35=0^A49=YOFX2^A56=YOFX^A34=23^A52=20260119-14:27:29.502^A10=203^A
24|8=FIX.4.4^A9=53^A35=0^A49=YOFX2^A56=YOFX^A34=24^A52=20260119-14:27:59.502^A10=207^A
25|8=FIX.4.4^A9=53^A35=0^A49=YOFX2^A56=YOFX^A34=25^A52=20260119-14:28:29.503^A10=207^A
26|8=FIX.4.4^A9=53^A35=0^A49=YOFX2^A56=YOFX^A34=26^A52=20260119-14:28:59.502^A10=210^A
27|8=FIX.4.4^A9=53^A35=0^A49=YOFX2^A56=YOFX^A34=27^A52=20260119-14:29:29.502^A10=209^A
28|8=FIX.4.4^A9=53^A35=0^A49=YOFX2^A56=YOFX^A34=28^A52=20260119-14:29:59.502^A10=213^A
29|8=FIX.4.4^A9=53^A35=0^A49=YOFX2^A56=YOFX^A34=29^A52=20260119-14:30:29.502^A10=203^A
30|8=FIX.4.4^A9=53^A35=0^A49=YOFX2^A56=YOFX^A34=30^A52=20260119-14:30:59.502^A10=198^A
31|8=FIX.4.4^A9=53^A35=0^A49=YOFX2^A56=YOFX^A34=31^A52=20260119-14:31:29.502^A10=197^A
32|8=FIX.4.4^A9=53^A35=0^A49=YOFX2^A56=YOFX^A34=32^A52=20260119-14:31:59.503^A10=202^A
33|8=FIX.4.4^A9=53^A35=0^A49=YOFX2^A56=YOFX^A34=33^A52=20260119-14:32:29.502^A10=200^A
34|8=FIX.4.4^A9=53^A35=0^A49=YOFX2^A56=YOFX^A34=34^A52=20260119-14:32:59.503^A10=205^A
35|8=FIX.4.4^A9=53^A35=0^A49=YOFX2^A56=YOFX^A34=35^A52=20260119-14:33:29.503^A10=204^A
36|8=FIX.4.4^A9=53^A35=0^A49=YOFX2^A56=YOFX^A34=36^A52=20260119-14:33:59.503^A10=208^A
37|8=FIX.4.4^A9=53^A35=0^A49=YOFX2^A56=YOFX^A34=37^A52=20260119-14:34:29.503^A10=207^A
38|8=FIX.4.4^A9=53^A35=0^A49=YOFX2^A56=YOFX^A34=38^A52=20260119-14:34:59.502^A10=210^A
39|8=FIX.4.4^A9=53^A35=0^A49=YOFX2^A56=YOFX^A34=39^A52=20260119-14:35:29.503^A10=210^A
40|8=FIX.4.4^A9=53^A35=0^A49=YOFX2^A56=YOFX^A34=40^A52=20260119-14:35:59.502^A10=204^A
41|8=FIX.4.4^A9=53^A35=0^A49=YOFX2^A56=YOFX^A34=41^A52=20260119-14:36:29.503^A10=204^A
42|8=FIX.4.4^A9=53^A35=0^A49=YOFX2^A56=YOFX^A34=42^A52=20260119-14:36:59.502^A10=207^A
43|8=FIX.4.4^A9=53^A35=0^A49=YOFX2^A56=YOFX^A34=43^A52=20260119-14:37:29.502^A10=206^A
44|8=FIX.4.4^A9=53^A35=0^A49=YOFX2^A56=YOFX^A34=44^A52=20260119-14:37:59.502^A10=210^A
45|8=FIX.4.4^A9=53^A35=0^A49=YOFX2^A56=YOFX^A34=45^A52=20260119-14:38:29.502^A10=209^A
46|8=FIX.4.4^A9=53^A35=0^A49=YOFX2^A56=YOFX^A34=46^A52=20260119-14:38:59.502^A10=213^A
47|8=FIX.4.4^A9=53^A35=0^A49=YOFX2^A56=YOFX^A34=47^A52=20260119-14:39:29.503^A10=213^A
48|8=FIX.4.4^A9=53^A35=0^A49=YOFX2^A56=YOFX^A34=48^A52=20260119-14:39:59.502^A10=216^A
49|8=FIX.4.4^A9=53^A35=0^A49=YOFX2^A56=YOFX^A34=49^A52=20260119-14:40:29.503^A10=207^A
50|8=FIX.4.4^A9=53^A35=0^A49=YOFX2^A56=YOFX^A34=50^A52=20260119-14:40:59.502^A10=201^A
51|8=FIX.4.4^A9=53^A35=0^A49=YOFX2^A56=YOFX^A34=51^A52=20260119-14:41:29.502^A10=200^A
52|8=FIX.4.4^A9=53^A35=0^A49=YOFX2^A56=YOFX^A34=52^A52=20260119-14:41:59.502^A10=204^A
53|8=FIX.4.4^A9=53^A35=0^A49=YOFX2^A56=YOFX^A34=53^A52=20260119-14:42:29.502^A10=203^A
54|8=FIX.4.4^A9=53^A35=0^A49=YOFX2^A56=YOFX^A34=54^A52=20260119-14:42:59.502^A10=207^A
55|8=FIX.4.4^A9=53^A35=0^A49=YOFX2^A56=YOFX^A34=55^A52=20260119-14:43:29.502^A10=206^A
1|8=FIX.4.4^A9=88^A35=A^A49=YOFX2^A56=YOFX^A34=1^A52=20260119-14:43:59.865^A98=0^A108=30^A553=YOFX2^A554=Brand#143^A10=167^A
2|8=FIX.4.4^A9=90^A35=x^A49=YOFX2^A56=YOFX^A34=2^A52=20260119-14:44:00.734^A320=SECLIST_1768833840734127400^A559=4^A10=022^A
3|8=FIX.4.4^A9=132^A35=V^A49=YOFX2^A56=YOFX^A34=3^A52=20260119-14:44:02.735^A262=MD_EURUSD_1768833842735480100^A263=1^A264=0^A267=2^A269=0^A269=1^A146=1^A55=EURUSD^A10=148^A
4|8=FIX.4.4^A9=132^A35=V^A49=YOFX2^A56=YOFX^A34=4^A52=20260119-14:44:02.836^A262=MD_GBPUSD_1768833842836490100^A263=1^A264=0^A267=2^A269=0^A269=1^A146=1^A55=GBPUSD^A10=116^A
5|8=FIX.4.4^A9=132^A35=V^A49=YOFX2^A56=YOFX^A34=5^A52=20260119-14:44:02.937^A262=MD_USDJPY_1768833842937676000^A263=1^A264=0^A267=2^A269=0^A269=1^A146=1^A55=USDJPY^A10=178^A
6|8=FIX.4.4^A9=132^A35=V^A49=YOFX2^A56=YOFX^A34=6^A52=20260119-14:44:03.038^A262=MD_USDCHF_1768833843038197400^A263=1^A264=0^A267=2^A269=0^A269=1^A146=1^A55=USDCHF^A10=099^A
7|8=FIX.4.4^A9=132^A35=V^A49=YOFX2^A56=YOFX^A34=7^A52=20260119-14:44:03.138^A262=MD_USDCAD_1768833843138866100^A263=1^A264=0^A267=2^A269=0^A269=1^A146=1^A55=USDCAD^A10=084^A
8|8=FIX.4.4^A9=132^A35=V^A49=YOFX2^A56=YOFX^A34=8^A52=20260119-14:44:03.239^A262=MD_AUDUSD_1768833843239992800^A263=1^A264=0^A267=2^A269=0^A269=1^A146=1^A55=AUDUSD^A10=132^A
9|8=FIX.4.4^A9=132^A35=V^A49=YOFX2^A56=YOFX^A34=9^A52=20260119-14:44:03.341^A262=MD_NZDUSD_1768833843341133000^A263=1^A264=0^A267=2^A269=0^A269=1^A146=1^A55=NZDUSD^A10=136^A
10|8=FIX.4.4^A9=133^A35=V^A49=YOFX2^A56=YOFX^A34=10^A52=20260119-14:44:03.441^A262=MD_EURGBP_1768833843441979700^A263=1^A264=0^A267=2^A269=0^A269=1^A146=1^A55=EURGBP^A10=166^A
11|8=FIX.4.4^A9=133^A35=V^A49=YOFX2^A56=YOFX^A34=11^A52=20260119-14:44:03.542^A262=MD_EURJPY_1768833843542863100^A263=1^A264=0^A267=2^A269=0^A269=1^A146=1^A55=EURJPY^A10=209^A
12|8=FIX.4.4^A9=133^A35=V^A49=YOFX2^A56=YOFX^A34=12^A52=20260119-14:44:03.644^A262=MD_GBPJPY_1768833843644294400^A263=1^A264=0^A267=2^A269=0^A269=1^A146=1^A55=GBPJPY^A10=179^A
13|8=FIX.4.4^A9=133^A35=V^A49=YOFX2^A56=YOFX^A34=13^A52=20260119-14:44:03.745^A262=MD_EURAUD_1768833843745443800^A263=1^A264=0^A267=2^A269=0^A269=1^A146=1^A55=EURAUD^A10=172^A
14|8=FIX.4.4^A9=133^A35=V^A49=YOFX2^A56=YOFX^A34=14^A52=20260119-14:44:03.847^A262=MD_EURCAD_1768833843846691900^A263=1^A264=0^A267=2^A269=0^A269=1^A146=1^A55=EURCAD^A10=148^A
15|8=FIX.4.4^A9=133^A35=V^A49=YOFX2^A56=YOFX^A34=15^A52=20260119-14:44:03.948^A262=MD_EURCHF_1768833843948356300^A263=1^A264=0^A267=2^A269=0^A269=1^A146=1^A55=EURCHF^A10=164^A
16|8=FIX.4.4^A9=133^A35=V^A49=YOFX2^A56=YOFX^A34=16^A52=20260119-14:44:04.049^A262=MD_AUDCAD_1768833844049220500^A263=1^A264=0^A267=2^A269=0^A269=1^A146=1^A55=AUDCAD^A10=089^A
17|8=FIX.4.4^A9=133^A35=V^A49=YOFX2^A56=YOFX^A34=17^A52=20260119-14:44:04.149^A262=MD_AUDCHF_1768833844149809900^A263=1^A264=0^A267=2^A269=0^A269=1^A146=1^A55=AUDCHF^A10=127^A
18|8=FIX.4.4^A9=133^A35=V^A49=YOFX2^A56=YOFX^A34=18^A52=20260119-14:44:04.250^A262=MD_AUDJPY_1768833844250546900^A263=1^A264=0^A267=2^A269=0^A269=1^A146=1^A55=AUDJPY^A10=180^A
19|8=FIX.4.4^A9=133^A35=V^A49=YOFX2^A56=YOFX^A34=19^A52=20260119-14:44:04.351^A262=MD_AUDNZD_1768833844351783900^A263=1^A264=0^A267=2^A269=0^A269=1^A146=1^A55=AUDNZD^A10=174^A
20|8=FIX.4.4^A9=133^A35=V^A49=YOFX2^A56=YOFX^A34=20^A52=20260119-14:44:04.452^A262=MD_CADCHF_1768833844452666000^A263=1^A264=0^A267=2^A269=0^A269=1^A146=1^A55=CADCHF^A10=071^A
21|8=FIX.4.4^A9=133^A35=V^A49=YOFX2^A56=YOFX^A34=21^A52=20260119-14:44:04.553^A262=MD_CADJPY_1768833844553639000^A263=1^A264=0^A267=2^A269=0^A269=1^A146=1^A55=CADJPY^A10=144^A
22|8=FIX.4.4^A9=133^A35=V^A49=YOFX2^A56=YOFX^A34=22^A52=20260119-14:44:04.654^A262=MD_CHFJPY_1768833844654053100^A263=1^A264=0^A267=2^A269=0^A269=1^A146=1^A55=CHFJPY^A10=158^A
23|8=FIX.4.4^A9=133^A35=V^A49=YOFX2^A56=YOFX^A34=23^A52=20260119-14:44:04.754^A262=MD_GBPAUD_1768833844754937700^A263=1^A264=0^A267=2^A269=0^A269=1^A146=1^A55=GBPAUD^A10=144^A
24|8=FIX.4.4^A9=133^A35=V^A49=YOFX2^A56=YOFX^A34=24^A52=20260119-14:44:04.857^A262=MD_GBPCAD_1768833844857247100^A263=1^A264=0^A267=2^A269=0^A269=1^A146=1^A55=GBPCAD^A10=105^A
25|8=FIX.4.4^A9=133^A35=V^A49=YOFX2^A56=YOFX^A34=25^A52=20260119-14:44:04.958^A262=MD_GBPCHF_1768833844958344700^A263=1^A264=0^A267=2^A269=0^A269=1^A146=1^A55=GBPCHF^A10=132^A
26|8=FIX.4.4^A9=133^A35=V^A49=YOFX2^A56=YOFX^A34=26^A52=20260119-14:44:05.058^A262=MD_GBPNZD_1768833845058906900^A263=1^A264=0^A267=2^A269=0^A269=1^A146=1^A55=GBPNZD^A10=177^A
27|8=FIX.4.4^A9=133^A35=V^A49=YOFX2^A56=YOFX^A34=27^A52=20260119-14:44:05.159^A262=MD_NZDCAD_1768833845159335200^A263=1^A264=0^A267=2^A269=0^A269=1^A146=1^A55=NZDCAD^A10=137^A
28|8=FIX.4.4^A9=133^A35=V^A49=YOFX2^A56=YOFX^A34=28^A52=20260119-14:44:05.259^A262=MD_NZDCHF_1768833845259481600^A263=1^A264=0^A267=2^A269=0^A269=1^A146=1^A55=NZDCHF^A10=164^A
29|8=FIX.4.4^A9=133^A35=V^A49=YOFX2^A56=YOFX^A34=29^A52=20260119-14:44:05.360^A262=MD_NZDJPY_1768833845360349300^A263=1^A264=0^A267=2^A269=0^A269=1^A146=1^A55=NZDJPY^A10=219^A
30|8=FIX.4.4^A9=133^A35=V^A49=YOFX2^A56=YOFX^A34=30^A52=20260119-14:44:05.461^A262=MD_XAUUSD_1768833845461587600^A263=1^A264=0^A267=2^A269=0^A269=1^A146=1^A55=XAUUSD^A10=212^A
31|8=FIX.4.4^A9=133^A35=V^A49=YOFX2^A56=YOFX^A34=31^A52=20260119-14:44:05.561^A262=MD_XAGUSD_1768833845561932300^A263=1^A264=0^A267=2^A269=0^A269=1^A146=1^A55=XAGUSD^A10=178^A
32|8=FIX.4.4^A9=53^A35=0^A49=YOFX2^A56=YOFX^A34=32^A52=20260119-14:44:30.168^A10=202^A
33|8=FIX.4.4^A9=53^A35=0^A49=YOFX2^A56=YOFX^A34=33^A52=20260119-14:45:00.168^A10=201^A
34|8=FIX.4.4^A9=53^A35=0^A49=YOFX2^A56=YOFX^A34=34^A52=20260119-14:45:30.168^A10=205^A
35|8=FIX.4.4^A9=53^A35=0^A49=YOFX2^A56=YOFX^A34=35^A52=20260119-14:46:00.168^A10=204^A
36|8=FIX.4.4^A9=53^A35=0^A49=YOFX2^A56=YOFX^A34=36^A52=20260119-14:46:30.168^A10=208^A
37|8=FIX.4.4^A9=53^A35=0^A49=YOFX2^A56=YOFX^A34=37^A52=20260119-14:47:00.168^A10=207^A
38|8=FIX.4.4^A9=53^A35=0^A49=YOFX2^A56=YOFX^A34=38^A52=20260119-14:47:30.168^A10=211^A
39|8=FIX.4.4^A9=53^A35=0^A49=YOFX2^A56=YOFX^A34=39^A52=20260119-14:48:00.169^A10=211^A
40|8=FIX.4.4^A9=53^A35=0^A49=YOFX2^A56=YOFX^A34=40^A52=20260119-14:48:30.168^A10=205^A
41|8=FIX.4.4^A9=53^A35=0^A49=YOFX2^A56=YOFX^A34=41^A52=20260119-14:49:00.168^A10=204^A
42|8=FIX.4.4^A9=53^A35=0^A49=YOFX2^A56=YOFX^A34=42^A52=20260119-14:49:30.168^A10=208^A
43|8=FIX.4.4^A9=53^A35=0^A49=YOFX2^A56=YOFX^A34=43^A52=20260119-14:50:00.168^A10=198^A
44|8=FIX.4.4^A9=53^A35=0^A49=YOFX2^A56=YOFX^A34=44^A52=20260119-14:50:30.168^A10=202^A
45|8=FIX.4.4^A9=53^A35=0^A49=YOFX2^A56=YOFX^A34=45^A52=20260119-14:51:00.168^A10=201^A
46|8=FIX.4.4^A9=53^A35=0^A49=YOFX2^A56=YOFX^A34=46^A52=20260119-14:51:30.168^A10=205^A
47|8=FIX.4.4^A9=53^A35=0^A49=YOFX2^A56=YOFX^A34=47^A52=20260119-14:52:00.168^A10=204^A
48|8=FIX.4.4^A9=53^A35=0^A49=YOFX2^A56=YOFX^A34=48^A52=20260119-14:52:30.168^A10=208^A
49|8=FIX.4.4^A9=53^A35=0^A49=YOFX2^A56=YOFX^A34=49^A52=20260119-14:53:00.169^A10=208^A
50|8=FIX.4.4^A9=70^A35=2^A49=YOFX2^A56=YOFX^A34=50^A52=20260119-14:53:10.213^A7=11718^A16=11718^A10=222^A
51|8=FIX.4.4^A9=70^A35=2^A49=YOFX2^A56=YOFX^A34=51^A52=20260119-14:53:27.515^A7=12022^A16=12022^A10=214^A
52|8=FIX.4.4^A9=53^A35=0^A49=YOFX2^A56=YOFX^A34=52^A52=20260119-14:53:30.168^A10=204^A
53|8=FIX.4.4^A9=53^A35=0^A49=YOFX2^A56=YOFX^A34=53^A52=20260119-14:54:00.168^A10=203^A
54|8=FIX.4.4^A9=53^A35=0^A49=YOFX2^A56=YOFX^A34=54^A52=20260119-14:54:30.168^A10=207^A
55|8=FIX.4.4^A9=53^A35=0^A49=YOFX2^A56=YOFX^A34=55^A52=20260119-14:55:00.168^A10=206^A
56|8=FIX.4.4^A9=53^A35=0^A49=YOFX2^A56=YOFX^A34=56^A52=20260119-14:55:30.168^A10=210^A
57|8=FIX.4.4^A9=53^A35=0^A49=YOFX2^A56=YOFX^A34=57^A52=20260119-14:56:00.168^A10=209^A
58|8=FIX.4.4^A9=53^A35=0^A49=YOFX2^A56=YOFX^A34=58^A52=20260119-14:56:30.168^A10=213^A
59|8=FIX.4.4^A9=70^A35=2^A49=YOFX2^A56=YOFX^A34=59^A52=20260119-14:56:31.549^A7=16423^A16=16423^A10=245^A
60|8=FIX.4.4^A9=53^A35=0^A49=YOFX2^A56=YOFX^A34=60^A52=20260119-14:57:00.168^A10=204^A
61|8=FIX.4.4^A9=53^A35=0^A49=YOFX2^A56=YOFX^A34=61^A52=20260119-14:57:30.168^A10=208^A
62|8=FIX.4.4^A9=53^A35=0^A49=YOFX2^A56=YOFX^A34=62^A52=20260119-14:58:00.169^A10=208^A
63|8=FIX.4.4^A9=70^A35=2^A49=YOFX2^A56=YOFX^A34=63^A52=20260119-14:58:25.722^A7=19778^A16=19778^A10=014^A
64|8=FIX.4.4^A9=53^A35=0^A49=YOFX2^A56=YOFX^A34=64^A52=20260119-14:58:30.168^A10=212^A
65|8=FIX.4.4^A9=53^A35=0^A49=YOFX2^A56=YOFX^A34=65^A52=20260119-14:59:00.168^A10=211^A
66|8=FIX.4.4^A9=53^A35=0^A49=YOFX2^A56=YOFX^A34=66^A52=20260119-14:59:30.168^A10=215^A
67|8=FIX.4.4^A9=89^A35=A^A49=YOFX2^A56=YOFX^A34=67^A52=20260119-14:59:57.643^A98=0^A108=30^A553=YOFX2^A554=Brand#143^A10=227^A
507|8=FIX.4.4^A9=92^A35=x^A49=YOFX2^A56=YOFX^A34=507^A52=20260119-14:59:58.574^A320=SECLIST_1768834798574378100^A559=4^A10=171^A
4355|8=FIX.4.4^A9=135^A35=V^A49=YOFX2^A56=YOFX^A34=4355^A52=20260119-15:00:00.575^A262=MD_EURUSD_1768834800575234600^A263=1^A264=0^A267=2^A269=0^A269=1^A146=1^A55=EURUSD^A10=045^A
4587|8=FIX.4.4^A9=135^A35=V^A49=YOFX2^A56=YOFX^A34=4587^A52=20260119-15:00:00.676^A262=MD_GBPUSD_1768834800676668500^A263=1^A264=0^A267=2^A269=0^A269=1^A146=1^A55=GBPUSD^A10=028^A
4777|8=FIX.4.4^A9=135^A35=V^A49=YOFX2^A56=YOFX^A34=4777^A52=20260119-15:00:00.778^A262=MD_USDJPY_1768834800778955700^A263=1^A264=0^A267=2^A269=0^A269=1^A146=1^A55=USDJPY^A10=088^A
4998|8=FIX.4.4^A9=135^A35=V^A49=YOFX2^A56=YOFX^A34=4998^A52=20260119-15:00:00.881^A262=MD_USDCHF_1768834800881225600^A263=1^A264=0^A267=2^A269=0^A269=1^A146=1^A55=USDCHF^A10=004^A
5190|8=FIX.4.4^A9=135^A35=V^A49=YOFX2^A56=YOFX^A34=5190^A52=20260119-15:00:00.982^A262=MD_USDCAD_1768834800982785300^A263=1^A264=0^A267=2^A269=0^A269=1^A146=1^A55=USDCAD^A10=239^A
5395|8=FIX.4.4^A9=135^A35=V^A49=YOFX2^A56=YOFX^A34=5395^A52=20260119-15:00:01.085^A262=MD_AUDUSD_1768834801084628700^A263=1^A264=0^A267=2^A269=0^A269=1^A146=1^A55=AUDUSD^A10=015^A
5612|8=FIX.4.4^A9=135^A35=V^A49=YOFX2^A56=YOFX^A34=5612^A52=20260119-15:00:01.187^A262=MD_NZDUSD_1768834801186905000^A263=1^A264=0^A267=2^A269=0^A269=1^A146=1^A55=NZDUSD^A10=040^A
5785|8=FIX.4.4^A9=135^A35=V^A49=YOFX2^A56=YOFX^A34=5785^A52=20260119-15:00:01.288^A262=MD_EURGBP_1768834801288473000^A263=1^A264=0^A267=2^A269=0^A269=1^A146=1^A55=EURGBP^A10=018^A
5975|8=FIX.4.4^A9=135^A35=V^A49=YOFX2^A56=YOFX^A34=5975^A52=20260119-15:00:01.389^A262=MD_EURJPY_1768834801389292300^A263=1^A264=0^A267=2^A269=0^A269=1^A146=1^A55=EURJPY^A10=077^A
6214|8=FIX.4.4^A9=135^A35=V^A49=YOFX2^A56=YOFX^A34=6214^A52=20260119-15:00:01.490^A262=MD_GBPJPY_1768834801490079600^A263=1^A264=0^A267=2^A269=0^A269=1^A146=1^A55=GBPJPY^A10=018^A
6431|8=FIX.4.4^A9=135^A35=V^A49=YOFX2^A56=YOFX^A34=6431^A52=20260119-15:00:01.591^A262=MD_EURAUD_1768834801591138000^A263=1^A264=0^A267=2^A269=0^A269=1^A146=1^A55=EURAUD^A10=001^A
6686|8=FIX.4.4^A9=135^A35=V^A49=YOFX2^A56=YOFX^A34=6686^A52=20260119-15:00:01.697^A262=MD_EURCAD_1768834801697449500^A263=1^A264=0^A267=2^A269=0^A269=1^A146=1^A55=EURCAD^A10=001^A
6926|8=FIX.4.4^A9=135^A35=V^A49=YOFX2^A56=YOFX^A34=6926^A52=20260119-15:00:01.798^A262=MD_EURCHF_1768834801798178800^A263=1^A264=0^A267=2^A269=0^A269=1^A146=1^A55=EURCHF^A10=022^A
7085|8=FIX.4.4^A9=135^A35=V^A49=YOFX2^A56=YOFX^A34=7085^A52=20260119-15:00:01.900^A262=MD_AUDCAD_1768834801899719800^A263=1^A264=0^A267=2^A269=0^A269=1^A146=1^A55=AUDCAD^A10=209^A
7209|8=FIX.4.4^A9=135^A35=V^A49=YOFX2^A56=YOFX^A34=7209^A52=20260119-15:00:02.001^A262=MD_AUDCHF_1768834802001388200^A263=1^A264=0^A267=2^A269=0^A269=1^A146=1^A55=AUDCHF^A10=190^A
7424|8=FIX.4.4^A9=135^A35=V^A49=YOFX2^A56=YOFX^A34=7424^A52=20260119-15:00:02.102^A262=MD_AUDJPY_1768834802102074200^A263=1^A264=0^A267=2^A269=0^A269=1^A146=1^A55=AUDJPY^A10=253^A
7628|8=FIX.4.4^A9=135^A35=V^A49=YOFX2^A56=YOFX^A34=7628^A52=20260119-15:00:02.203^A262=MD_AUDNZD_1768834802203163400^A263=1^A264=0^A267=2^A269=0^A269=1^A146=1^A55=AUDNZD^A10=250^A
7825|8=FIX.4.4^A9=135^A35=V^A49=YOFX2^A56=YOFX^A34=7825^A52=20260119-15:00:02.304^A262=MD_CADCHF_1768834802304412400^A263=1^A264=0^A267=2^A269=0^A269=1^A146=1^A55=CADCHF^A10=160^A
8043|8=FIX.4.4^A9=135^A35=V^A49=YOFX2^A56=YOFX^A34=8043^A52=20260119-15:00:02.406^A262=MD_CADJPY_1768834802406185700^A263=1^A264=0^A267=2^A269=0^A269=1^A146=1^A55=CADJPY^A10=237^A
8229|8=FIX.4.4^A9=135^A35=V^A49=YOFX2^A56=YOFX^A34=8229^A52=20260119-15:00:02.507^A262=MD_CHFJPY_1768834802507212500^A263=1^A264=0^A267=2^A269=0^A269=1^A146=1^A55=CHFJPY^A10=254^A
8427|8=FIX.4.4^A9=135^A35=V^A49=YOFX2^A56=YOFX^A34=8427^A52=20260119-15:00:02.608^A262=MD_GBPAUD_1768834802608468900^A263=1^A264=0^A267=2^A269=0^A269=1^A146=1^A55=GBPAUD^A10=241^A
8635|8=FIX.4.4^A9=135^A35=V^A49=YOFX2^A56=YOFX^A34=8635^A52=20260119-15:00:02.760^A262=MD_GBPCAD_1768834802760536500^A263=1^A264=0^A267=2^A269=0^A269=1^A146=1^A55=GBPCAD^A10=196^A
8885|8=FIX.4.4^A9=135^A35=V^A49=YOFX2^A56=YOFX^A34=8885^A52=20260119-15:00:02.861^A262=MD_GBPCHF_1768834802861537800^A263=1^A264=0^A267=2^A269=0^A269=1^A146=1^A55=GBPCHF^A10=229^A
9135|8=FIX.4.4^A9=135^A35=V^A49=YOFX2^A56=YOFX^A34=9135^A52=20260119-15:00:02.962^A262=MD_GBPNZD_1768834802962217300^A263=1^A264=0^A267=2^A269=0^A269=1^A146=1^A55=GBPNZD^A10=010^A
9174|8=FIX.4.4^A9=135^A35=V^A49=YOFX2^A56=YOFX^A34=9174^A52=20260119-15:00:03.063^A262=MD_NZDCAD_1768834803063057900^A263=1^A264=0^A267=2^A269=0^A269=1^A146=1^A55=NZDCAD^A10=229^A
9304|8=FIX.4.4^A9=135^A35=V^A49=YOFX2^A56=YOFX^A34=9304^A52=20260119-15:00:03.229^A262=MD_NZDCHF_1768834803229149100^A263=1^A264=0^A267=2^A269=0^A269=1^A146=1^A55=NZDCHF^A10=244^A
9442|8=FIX.4.4^A9=135^A35=V^A49=YOFX2^A56=YOFX^A34=9442^A52=20260119-15:00:03.330^A262=MD_NZDJPY_1768834803330590800^A263=1^A264=0^A267=2^A269=0^A269=1^A146=1^A55=NZDJPY^A10=052^A
9579|8=FIX.4.4^A9=135^A35=V^A49=YOFX2^A56=YOFX^A34=9579^A52=20260119-15:00:03.431^A262=MD_XAUUSD_1768834803431575900^A263=1^A264=0^A267=2^A269=0^A269=1^A146=1^A55=XAUUSD^A10=061^A
9681|8=FIX.4.4^A9=135^A35=V^A49=YOFX2^A56=YOFX^A34=9681^A52=20260119-15:00:03.640^A262=MD_XAGUSD_1768834803640680300^A263=1^A264=0^A267=2^A269=0^A269=1^A146=1^A55=XAGUSD^A10=022^A
10874|8=FIX.4.4^A9=92^A35=A^A49=YOFX2^A56=YOFX^A34=10874^A52=20260119-15:00:41.217^A98=0^A108=30^A553=YOFX2^A554=Brand#143^A10=093^A
11752|8=FIX.4.4^A9=94^A35=x^A49=YOFX2^A56=YOFX^A34=11752^A52=20260119-15:00:42.135^A320=SECLIST_1768834842135885700^A559=4^A10=238^A
15341|8=FIX.4.4^A9=136^A35=V^A49=YOFX2^A56=YOFX^A34=15341^A52=20260119-15:00:44.272^A262=MD_EURUSD_1768834844272355000^A263=1^A264=0^A267=2^A269=0^A269=1^A146=1^A55=EURUSD^A10=093^A
15580|8=FIX.4.4^A9=136^A35=V^A49=YOFX2^A56=YOFX^A34=15580^A52=20260119-15:00:44.373^A262=MD_GBPUSD_1768834844373531800^A263=1^A264=0^A267=2^A269=0^A269=1^A146=1^A55=GBPUSD^A10=068^A
15789|8=FIX.4.4^A9=136^A35=V^A49=YOFX2^A56=YOFX^A34=15789^A52=20260119-15:00:44.474^A262=MD_USDJPY_1768834844474482200^A263=1^A264=0^A267=2^A269=0^A269=1^A146=1^A55=USDJPY^A10=134^A
16001|8=FIX.4.4^A9=136^A35=V^A49=YOFX2^A56=YOFX^A34=16001^A52=20260119-15:00:44.575^A262=MD_USDCHF_1768834844575432700^A263=1^A264=0^A267=2^A269=0^A269=1^A146=1^A55=USDCHF^A10=048^A
16254|8=FIX.4.4^A9=136^A35=V^A49=YOFX2^A56=YOFX^A34=16254^A52=20260119-15:00:44.676^A262=MD_USDCAD_1768834844676029900^A263=1^A264=0^A267=2^A269=0^A269=1^A146=1^A55=USDCAD^A10=048^A
16468|8=FIX.4.4^A9=136^A35=V^A49=YOFX2^A56=YOFX^A34=16468^A52=20260119-15:00:44.776^A262=MD_AUDUSD_1768834844776750700^A263=1^A264=0^A267=2^A269=0^A269=1^A146=1^A55=AUDUSD^A10=092^A
16683|8=FIX.4.4^A9=136^A35=V^A49=YOFX2^A56=YOFX^A34=16683^A52=20260119-15:00:44.878^A262=MD_NZDUSD_1768834844878432700^A263=1^A264=0^A267=2^A269=0^A269=1^A146=1^A55=NZDUSD^A10=130^A
16889|8=FIX.4.4^A9=136^A35=V^A49=YOFX2^A56=YOFX^A34=16889^A52=20260119-15:00:44.979^A262=MD_EURGBP_1768834844979203100^A263=1^A264=0^A267=2^A269=0^A269=1^A146=1^A55=EURGBP^A10=094^A
17080|8=FIX.4.4^A9=136^A35=V^A49=YOFX2^A56=YOFX^A34=17080^A52=20260119-15:00:45.086^A262=MD_EURJPY_1768834845086565000^A263=1^A264=0^A267=2^A269=0^A269=1^A146=1^A55=EURJPY^A10=120^A
17294|8=FIX.4.4^A9=136^A35=V^A49=YOFX2^A56=YOFX^A34=17294^A52=20260119-15:00:45.188^A262=MD_GBPJPY_1768834845188324400^A263=1^A264=0^A267=2^A269=0^A269=1^A146=1^A55=GBPJPY^A10=092^A
17490|8=FIX.4.4^A9=136^A35=V^A49=YOFX2^A56=YOFX^A34=17490^A52=20260119-15:00:45.289^A262=MD_EURAUD_1768834845289182300^A263=1^A264=0^A267=2^A269=0^A269=1^A146=1^A55=EURAUD^A10=083^A
17661|8=FIX.4.4^A9=136^A35=V^A49=YOFX2^A56=YOFX^A34=17661^A52=20260119-15:00:45.390^A262=MD_EURCAD_1768834845390075000^A263=1^A264=0^A267=2^A269=0^A269=1^A146=1^A55=EURCAD^A10=031^A
17898|8=FIX.4.4^A9=136^A35=V^A49=YOFX2^A56=YOFX^A34=17898^A52=20260119-15:00:45.496^A262=MD_EURCHF_1768834845496535500^A263=1^A264=0^A267=2^A269=0^A269=1^A146=1^A55=EURCHF^A10=081^A
18065|8=FIX.4.4^A9=136^A35=V^A49=YOFX2^A56=YOFX^A34=18065^A52=20260119-15:00:45.597^A262=MD_AUDCAD_1768834845597149000^A263=1^A264=0^A267=2^A269=0^A269=1^A146=1^A55=AUDCAD^A10=014^A
18311|8=FIX.4.4^A9=136^A35=V^A49=YOFX2^A56=YOFX^A34=18311^A52=20260119-15:00:45.717^A262=MD_AUDCHF_1768834845716592200^A263=1^A264=0^A267=2^A269=0^A269=1^A146=1^A55=AUDCHF^A10=017^A
18545|8=FIX.4.4^A9=136^A35=V^A49=YOFX2^A56=YOFX^A34=18545^A52=20260119-15:00:45.817^A262=MD_AUDJPY_1768834845817556100^A263=1^A264=0^A267=2^A269=0^A269=1^A146=1^A55=AUDJPY^A10=096^A
18749|8=FIX.4.4^A9=136^A35=V^A49=YOFX2^A56=YOFX^A34=18749^A52=20260119-15:00:45.918^A262=MD_AUDNZD_1768834845918191800^A263=1^A264=0^A267=2^A269=0^A269=1^A146=1^A55=AUDNZD^A10=094^A
18994|8=FIX.4.4^A9=136^A35=V^A49=YOFX2^A56=YOFX^A34=18994^A52=20260119-15:00:46.019^A262=MD_CADCHF_1768834846019106600^A263=1^A264=0^A267=2^A269=0^A269=1^A146=1^A55=CADCHF^A10=242^A
19228|8=FIX.4.4^A9=136^A35=V^A49=YOFX2^A56=YOFX^A34=19228^A52=20260119-15:00:46.125^A262=MD_CADJPY_1768834846125907600^A263=1^A264=0^A267=2^A269=0^A269=1^A146=1^A55=CADJPY^A10=050^A
19472|8=FIX.4.4^A9=136^A35=V^A49=YOFX2^A56=YOFX^A34=19472^A52=20260119-15:00:46.233^A262=MD_CHFJPY_1768834846233603200^A263=1^A264=0^A267=2^A269=0^A269=1^A146=1^A55=CHFJPY^A10=058^A
19664|8=FIX.4.4^A9=136^A35=V^A49=YOFX2^A56=YOFX^A34=19664^A52=20260119-15:00:46.344^A262=MD_GBPAUD_1768834846344443100^A263=1^A264=0^A267=2^A269=0^A269=1^A146=1^A55=GBPAUD^A10=034^A
19905|8=FIX.4.4^A9=136^A35=V^A49=YOFX2^A56=YOFX^A34=19905^A52=20260119-15:00:46.444^A262=MD_GBPCAD_1768834846444692000^A263=1^A264=0^A267=2^A269=0^A269=1^A146=1^A55=GBPCAD^A10=003^A
20130|8=FIX.4.4^A9=136^A35=V^A49=YOFX2^A56=YOFX^A34=20130^A52=20260119-15:00:46.545^A262=MD_GBPCHF_1768834846545616200^A263=1^A264=0^A267=2^A269=0^A269=1^A146=1^A55=GBPCHF^A10=005^A
20297|8=FIX.4.4^A9=136^A35=V^A49=YOFX2^A56=YOFX^A34=20297^A52=20260119-15:00:46.656^A262=MD_GBPNZD_1768834846656902000^A263=1^A264=0^A267=2^A269=0^A269=1^A146=1^A55=GBPNZD^A10=075^A
20527|8=FIX.4.4^A9=136^A35=V^A49=YOFX2^A56=YOFX^A34=20527^A52=20260119-15:00:46.761^A262=MD_NZDCAD_1768834846761660000^A263=1^A264=0^A267=2^A269=0^A269=1^A146=1^A55=NZDCAD^A10=032^A
20719|8=FIX.4.4^A9=136^A35=V^A49=YOFX2^A56=YOFX^A34=20719^A52=20260119-15:00:46.862^A262=MD_NZDCHF_1768834846862350800^A263=1^A264=0^A267=2^A269=0^A269=1^A146=1^A55=NZDCHF^A10=061^A
20898|8=FIX.4.4^A9=136^A35=V^A49=YOFX2^A56=YOFX^A34=20898^A52=20260119-15:00:46.962^A262=MD_NZDJPY_1768834846962761800^A263=1^A264=0^A267=2^A269=0^A269=1^A146=1^A55=NZDJPY^A10=145^A
21139|8=FIX.4.4^A9=136^A35=V^A49=YOFX2^A56=YOFX^A34=21139^A52=20260119-15:00:47.072^A262=MD_XAUUSD_1768834847072259100^A263=1^A264=0^A267=2^A269=0^A269=1^A146=1^A55=XAUUSD^A10=105^A
21280|8=FIX.4.4^A9=136^A35=V^A49=YOFX2^A56=YOFX^A34=21280^A52=20260119-15:00:47.174^A262=MD_XAGUSD_1768834847174303600^A263=1^A264=0^A267=2^A269=0^A269=1^A146=1^A55=XAGUSD^A10=075^A
68957|8=FIX.4.4^A9=56^A35=0^A49=YOFX2^A56=YOFX^A34=68957^A52=20260119-15:01:11.489^A10=122^A
128878|8=FIX.4.4^A9=57^A35=0^A49=YOFX2^A56=YOFX^A34=128878^A52=20260119-15:01:41.489^A10=173^A
187221|8=FIX.4.4^A9=57^A35=0^A49=YOFX2^A56=YOFX^A34=187221^A52=20260119-15:02:11.488^A10=157^A
245804|8=FIX.4.4^A9=57^A35=0^A49=YOFX2^A56=YOFX^A34=245804^A52=20260119-15:02:41.489^A10=163^A
304202|8=FIX.4.4^A9=57^A35=0^A49=YOFX2^A56=YOFX^A34=304202^A52=20260119-15:03:11.488^A10=148^A
347973|8=FIX.4.4^A9=66^A35=0^A49=YOFX2^A56=YOFX^A34=347973^A52=20260119-15:03:28.469^A112=TEST^A10=195^A
