1|8=FIX.4.4^A9=88^A35=A^A49=YOFX1^A56=YOFX^A34=1^A52=20260119-13:51:32.290^A98=0^A108=30^A553=YOFX1^A554=Brand#143^A10=146^A
2|8=FIX.4.4^A9=52^A35=0^A49=YOFX1^A56=YOFX^A34=2^A52=20260119-13:52:02.497^A10=151^A
4|8=FIX.4.4^A9=88^A35=A^A49=YOFX1^A56=YOFX^A34=4^A52=20260119-14:10:00.670^A98=0^A108=30^A553=YOFX1^A554=Brand#143^A10=142^A
74760|8=FIX.4.4^A9=56^A35=0^A49=YOFX1^A56=YOFX^A34=74760^A52=20260119-14:10:30.865^A10=108^A
155677|8=FIX.4.4^A9=57^A35=0^A49=YOFX1^A56=YOFX^A34=155677^A52=20260119-14:11:00.866^A10=163^A
160678|8=FIX.4.4^A9=93^A35=A^A49=YOFX1^A56=YOFX^A34=160678^A52=20260119-14:11:13.965^A98=0^A108=30^A553=YOFX1^A554=Brand#143^A10=158^A
160679|8=FIX.4.4^A9=57^A35=0^A49=YOFX1^A56=YOFX^A34=160679^A52=20260119-14:11:44.189^A10=167^A
160680|8=FIX.4.4^A9=66^A35=0^A49=YOFX1^A56=YOFX^A34=160680^A52=20260119-14:11:51.003^A112=TEST^A10=160^A
1|8=FIX.4.4^A9=88^A35=A^A49=YOFX1^A56=YOFX^A34=1^A52=20260119-14:12:05.823^A98=0^A108=30^A553=YOFX1^A554=Brand#143^A10=146^A
2|8=FIX.4.4^A9=52^A35=0^A49=YOFX1^A56=YOFX^A34=2^A52=20260119-14:12:36.085^A10=148^A
3|8=FIX.4.4^A9=52^A35=0^A49=YOFX1^A56=YOFX^A34=3^A52=20260119-14:13:06.084^A10=146^A
4|8=FIX.4.4^A9=88^A35=A^A49=YOFX1^A56=YOFX^A34=4^A52=20260119-14:13:34.512^A98=0^A108=30^A553=YOFX1^A554=Brand#143^A10=147^A
51007|8=FIX.4.4^A9=56^A35=0^A49=YOFX1^A56=YOFX^A34=51007^A52=20260119-14:14:04.770^A10=097^A
109979|8=FIX.4.4^A9=57^A35=0^A49=YOFX1^A56=YOFX^A34=109979^A52=20260119-14:14:34.770^A10=171^A
168809|8=FIX.4.4^A9=57^A35=0^A49=YOFX1^A56=YOFX^A34=168809^A52=20260119-14:15:04.770^A10=166^A
229159|8=FIX.4.4^A9=57^A35=0^A49=YOFX1^A56=YOFX^A34=229159^A52=20260119-14:15:34.770^A10=165^A
287323|8=FIX.4.4^A9=57^A35=0^A49=YOFX1^A56=YOFX^A34=287323^A52=20260119-14:16:04.771^A10=161^A
344904|8=FIX.4.4^A9=57^A35=0^A49=YOFX1^A56=YOFX^A34=344904^A52=20260119-14:16:34.770^A10=162^A
393225|8=FIX.4.4^A9=66^A35=0^A49=YOFX1^A56=YOFX^A34=393225^A52=20260119-14:16:53.524^A112=TEST^A10=178^A
1|8=FIX.4.4^A9=88^A35=A^A49=YOFX1^A56=YOFX^A34=1^A52=20260119-14:18:27.075^A98=0^A108=30^A553=YOFX1^A554=Brand#143^A10=155^A
2|8=FIX.4.4^A9=52^A35=0^A49=YOFX1^A56=YOFX^A34=2^A52=20260119-14:18:57.327^A10=156^A
3|8=FIX.4.4^A9=52^A35=0^A49=YOFX1^A56=YOFX^A34=3^A52=20260119-14:19:27.327^A10=155^A
4|8=FIX.4.4^A9=52^A35=0^A49=YOFX1^A56=YOFX^A34=4^A52=20260119-14:19:57.327^A10=159^A
5|8=FIX.4.4^A9=52^A35=0^A49=YOFX1^A56=YOFX^A34=5^A52=20260119-14:20:27.327^A10=149^A
6|8=FIX.4.4^A9=52^A35=0^A49=YOFX1^A56=YOFX^A34=6^A52=20260119-14:20:57.328^A10=154^A
7|8=FIX.4.4^A9=52^A35=0^A49=YOFX1^A56=YOFX^A34=7^A52=20260119-14:21:27.328^A10=153^A
8|8=FIX.4.4^A9=52^A35=0^A49=YOFX1^A56=YOFX^A34=8^A52=20260119-14:21:57.327^A10=156^A
9|8=FIX.4.4^A9=52^A35=0^A49=YOFX1^A56=YOFX^A34=9^A52=20260119-14:22:27.327^A10=155^A
10|8=FIX.4.4^A9=53^A35=0^A49=YOFX1^A56=YOFX^A34=10^A52=20260119-14:22:57.327^A10=199^A
11|8=FIX.4.4^A9=53^A35=0^A49=YOFX1^A56=YOFX^A34=11^A52=20260119-14:23:27.327^A10=198^A
12|8=FIX.4.4^A9=53^A35=0^A49=YOFX1^A56=YOFX^A34=12^A52=20260119-14:23:57.327^A10=202^A
13|8=FIX.4.4^A9=53^A35=0^A49=YOFX1^A56=YOFX^A34=13^A52=20260119-14:24:27.327^A10=201^A
14|8=FIX.4.4^A9=53^A35=0^A49=YOFX1^A56=YOFX^A34=14^A52=20260119-14:24:57.328^A10=206^A
15|8=FIX.4.4^A9=53^A35=0^A49=YOFX1^A56=YOFX^A34=15^A52=20260119-14:25:27.327^A10=204^A
16|8=FIX.4.4^A9=53^A35=0^A49=YOFX1^A56=YOFX^A34=16^A52=20260119-14:25:57.327^A10=208^A
17|8=FIX.4.4^A9=53^A35=0^A49=YOFX1^A56=YOFX^A34=17^A52=20260119-14:26:27.327^A10=207^A
18|8=FIX.4.4^A9=53^A35=0^A49=YOFX1^A56=YOFX^A34=18^A52=20260119-14:26:57.328^A10=212^A
19|8=FIX.4.4^A9=53^A35=0^A49=YOFX1^A56=YOFX^A34=19^A52=20260119-14:27:27.327^A10=210^A
20|8=FIX.4.4^A9=53^A35=0^A49=YOFX1^A56=YOFX^A34=20^A52=20260119-14:27:57.328^A10=206^A
21|8=FIX.4.4^A9=53^A35=0^A49=YOFX1^A56=YOFX^A34=21^A52=20260119-14:28:27.327^A10=204^A
22|8=FIX.4.4^A9=53^A35=0^A49=YOFX1^A56=YOFX^A34=22^A52=20260119-14:28:57.327^A10=208^A
23|8=FIX.4.4^A9=53^A35=0^A49=YOFX1^A56=YOFX^A34=23^A52=20260119-14:29:27.328^A10=208^A
24|8=FIX.4.4^A9=53^A35=0^A49=YOFX1^A56=YOFX^A34=24^A52=20260119-14:29:57.327^A10=211^A
25|8=FIX.4.4^A9=53^A35=0^A49=YOFX1^A56=YOFX^A34=25^A52=20260119-14:30:27.328^A10=202^A
26|8=FIX.4.4^A9=53^A35=0^A49=YOFX1^A56=YOFX^A34=26^A52=20260119-14:30:57.327^A10=205^A
27|8=FIX.4.4^A9=53^A35=0^A49=YOFX1^A56=YOFX^A34=27^A52=20260119-14:31:27.328^A10=205^A
28|8=FIX.4.4^A9=53^A35=0^A49=YOFX1^A56=YOFX^A34=28^A52=20260119-14:31:57.327^A10=208^A
29|8=FIX.4.4^A9=53^A35=0^A49=YOFX1^A56=YOFX^A34=29^A52=20260119-14:32:27.328^A10=208^A
30|8=FIX.4.4^A9=53^A35=0^A49=YOFX1^A56=YOFX^A34=30^A52=20260119-14:32:57.328^A10=203^A
31|8=FIX.4.4^A9=53^A35=0^A49=YOFX1^A56=YOFX^A34=31^A52=20260119-14:33:27.327^A10=201^A
32|8=FIX.4.4^A9=53^A35=0^A49=YOFX1^A56=YOFX^A34=32^A52=20260119-14:33:57.327^A10=205^A
33|8=FIX.4.4^A9=53^A35=0^A49=YOFX1^A56=YOFX^A34=33^A52=20260119-14:34:27.327^A10=204^A
34|8=FIX.4.4^A9=53^A35=0^A49=YOFX1^A56=YOFX^A34=34^A52=20260119-14:34:57.327^A10=208^A
35|8=FIX.4.4^A9=53^A35=0^A49=YOFX1^A56=YOFX^A34=35^A52=20260119-14:35:27.328^A10=208^A
36|8=FIX.4.4^A9=53^A35=0^A49=YOFX1^A56=YOFX^A34=36^A52=20260119-14:35:57.327^A10=211^A
37|8=FIX.4.4^A9=53^A35=0^A49=YOFX1^A56=YOFX^A34=37^A52=20260119-14:36:27.327^A10=210^A
38|8=FIX.4.4^A9=53^A35=0^A49=YOFX1^A56=YOFX^A34=38^A52=20260119-14:36:57.328^A10=215^A
39|8=FIX.4.4^A9=53^A35=0^A49=YOFX1^A56=YOFX^A34=39^A52=20260119-14:37:27.327^A10=213^A
40|8=FIX.4.4^A9=53^A35=0^A49=YOFX1^A56=YOFX^A34=40^A52=20260119-14:37:57.327^A10=208^A
41|8=FIX.4.4^A9=53^A35=0^A49=YOFX1^A56=YOFX^A34=41^A52=20260119-14:38:27.327^A10=207^A
42|8=FIX.4.4^A9=53^A35=0^A49=YOFX1^A56=YOFX^A34=42^A52=20260119-14:38:57.328^A10=212^A
43|8=FIX.4.4^A9=53^A35=0^A49=YOFX1^A56=YOFX^A34=43^A52=20260119-14:39:27.328^A10=211^A
44|8=FIX.4.4^A9=53^A35=0^A49=YOFX1^A56=YOFX^A34=44^A52=20260119-14:39:57.328^A10=215^A
45|8=FIX.4.4^A9=53^A35=0^A49=YOFX1^A56=YOFX^A34=45^A52=20260119-14:40:27.327^A10=204^A
46|8=FIX.4.4^A9=53^A35=0^A49=YOFX1^A56=YOFX^A34=46^A52=20260119-14:40:57.328^A10=209^A
47|8=FIX.4.4^A9=53^A35=0^A49=YOFX1^A56=YOFX^A34=47^A52=20260119-14:41:27.327^A10=207^A
48|8=FIX.4.4^A9=53^A35=0^A49=YOFX1^A56=YOFX^A34=48^A52=20260119-14:41:57.327^A10=211^A
49|8=FIX.4.4^A9=53^A35=0^A49=YOFX1^A56=YOFX^A34=49^A52=20260119-14:42:27.327^A10=210^A
50|8=FIX.4.4^A9=53^A35=0^A49=YOFX1^A56=YOFX^A34=50^A52=20260119-14:42:57.327^A10=205^A
51|8=FIX.4.4^A9=53^A35=0^A49=YOFX1^A56=YOFX^A34=51^A52=20260119-14:43:27.327^A10=204^A
1|8=FIX.4.4^A9=88^A35=A^A49=YOFX1^A56=YOFX^A34=1^A52=20260119-14:43:57.527^A98=0^A108=30^A553=YOFX1^A554=Brand#143^A10=158^A
2|8=FIX.4.4^A9=52^A35=0^A49=YOFX1^A56=YOFX^A34=2^A52=20260119-14:44:27.784^A10=159^A
3|8=FIX.4.4^A9=52^A35=0^A49=YOFX1^A56=YOFX^A34=3^A52=20260119-14:44:57.784^A10=163^A
4|8=FIX.4.4^A9=52^A35=0^A49=YOFX1^A56=YOFX^A34=4^A52=20260119-14:45:27.784^A10=162^A
5|8=FIX.4.4^A9=52^A35=0^A49=YOFX1^A56=YOFX^A34=5^A52=20260119-14:45:57.784^A10=166^A
6|8=FIX.4.4^A9=52^A35=0^A49=YOFX1^A56=YOFX^A34=6^A52=20260119-14:46:27.783^A10=164^A
7|8=FIX.4.4^A9=52^A35=0^A49=YOFX1^A56=YOFX^A34=7^A52=20260119-14:46:57.784^A10=169^A
8|8=FIX.4.4^A9=52^A35=0^A49=YOFX1^A56=YOFX^A34=8^A52=20260119-14:47:27.784^A10=168^A
9|8=FIX.4.4^A9=52^A35=0^A49=YOFX1^A56=YOFX^A34=9^A52=20260119-14:47:57.784^A10=172^A
10|8=FIX.4.4^A9=53^A35=0^A49=YOFX1^A56=YOFX^A34=10^A52=20260119-14:48:27.784^A10=211^A
11|8=FIX.4.4^A9=53^A35=0^A49=YOFX1^A56=YOFX^A34=11^A52=20260119-14:48:57.784^A10=215^A
12|8=FIX.4.4^A9=53^A35=0^A49=YOFX1^A56=YOFX^A34=12^A52=20260119-14:49:27.784^A10=214^A
13|8=FIX.4.4^A9=53^A35=0^A49=YOFX1^A56=YOFX^A34=13^A52=20260119-14:49:57.784^A10=218^A
14|8=FIX.4.4^A9=53^A35=0^A49=YOFX1^A56=YOFX^A34=14^A52=20260119-14:50:27.783^A10=207^A
15|8=FIX.4.4^A9=53^A35=0^A49=YOFX1^A56=YOFX^A34=15^A52=20260119-14:50:57.783^A10=211^A
16|8=FIX.4.4^A9=53^A35=0^A49=YOFX1^A56=YOFX^A34=16^A52=20260119-14:51:27.783^A10=210^A
17|8=FIX.4.4^A9=53^A35=0^A49=YOFX1^A56=YOFX^A34=17^A52=20260119-14:51:57.784^A10=215^A
18|8=FIX.4.4^A9=53^A35=0^A49=YOFX1^A56=YOFX^A34=18^A52=20260119-14:52:27.784^A10=214^A
19|8=FIX.4.4^A9=53^A35=0^A49=YOFX1^A56=YOFX^A34=19^A52=20260119-14:52:57.784^A10=218^A
20|8=FIX.4.4^A9=53^A35=0^A49=YOFX1^A56=YOFX^A34=20^A52=20260119-14:53:27.784^A10=208^A
21|8=FIX.4.4^A9=53^A35=0^A49=YOFX1^A56=YOFX^A34=21^A52=20260119-14:53:57.784^A10=212^A
22|8=FIX.4.4^A9=53^A35=0^A49=YOFX1^A56=YOFX^A34=22^A52=20260119-14:54:27.784^A10=211^A
23|8=FIX.4.4^A9=53^A35=0^A49=YOFX1^A56=YOFX^A34=23^A52=20260119-14:54:57.783^A10=214^A
24|8=FIX.4.4^A9=53^A35=0^A49=YOFX1^A56=YOFX^A34=24^A52=20260119-14:55:27.783^A10=213^A
25|8=FIX.4.4^A9=53^A35=0^A49=YOFX1^A56=YOFX^A34=25^A52=20260119-14:55:57.784^A10=218^A
26|8=FIX.4.4^A9=53^A35=0^A49=YOFX1^A56=YOFX^A34=26^A52=20260119-14:56:27.784^A10=217^A
27|8=FIX.4.4^A9=53^A35=0^A49=YOFX1^A56=YOFX^A34=27^A52=20260119-14:56:57.784^A10=221^A
28|8=FIX.4.4^A9=53^A35=0^A49=YOFX1^A56=YOFX^A34=28^A52=20260119-14:57:27.784^A10=220^A
29|8=FIX.4.4^A9=53^A35=0^A49=YOFX1^A56=YOFX^A34=29^A52=20260119-14:57:57.783^A10=223^A
30|8=FIX.4.4^A9=53^A35=0^A49=YOFX1^A56=YOFX^A34=30^A52=20260119-14:58:27.784^A10=214^A
31|8=FIX.4.4^A9=53^A35=0^A49=YOFX1^A56=YOFX^A34=31^A52=20260119-14:58:57.784^A10=218^A
32|8=FIX.4.4^A9=53^A35=0^A49=YOFX1^A56=YOFX^A34=32^A52=20260119-14:59:27.784^A10=217^A
33|8=FIX.4.4^A9=89^A35=A^A49=YOFX1^A56=YOFX^A34=33^A52=20260119-14:59:55.563^A98=0^A108=30^A553=YOFX1^A554=Brand#143^A10=217^A
34|8=FIX.4.4^A9=89^A35=A^A49=YOFX1^A56=YOFX^A34=34^A52=20260119-15:00:39.090^A98=0^A108=30^A553=YOFX1^A554=Brand#143^A10=202^A
35|8=FIX.4.4^A9=53^A35=0^A49=YOFX1^A56=YOFX^A34=35^A52=20260119-15:01:09.337^A10=202^A
36|8=FIX.4.4^A9=62^A35=0^A49=YOFX1^A56=YOFX^A34=36^A52=20260119-15:01:16.129^A112=TEST^A10=218^A
37|8=FIX.4.4^A9=53^A35=0^A49=YOFX1^A56=YOFX^A34=37^A52=20260119-15:01:39.340^A10=201^A
