1|8=FIX.4.4^A9=88^A35=A^A49=YOFX2^A56=YOFX^A34=1^A52=20260119-11:28:36.184^A98=0^A108=30^A553=YOFX2^A554=Brand#143^A10=156^A
2|8=FIX.4.4^A9=138^A35=V^A49=YOFX2^A56=YOFX^A34=2^A52=20260119-11:28:45.494^A262=MD_XAUUSD_1768822125494046500^A263=1^A264=0^A265=0^A267=2^A269=0^A269=1^A146=1^A55=XAUUSD^A10=172^A
3|8=FIX.4.4^A9=140^A35=V^A49=YOFX2^A56=YOFX^A34=3^A52=20260119-11:28:46.212^A262=MD_XAU/USD_1768822126211453100^A263=1^A264=0^A265=0^A267=2^A269=0^A269=1^A146=1^A55=XAU/USD^A10=235^A
4|8=FIX.4.4^A9=142^A35=V^A49=YOFX2^A56=YOFX^A34=4^A52=20260119-11:28:46.932^A262=MD_XAUUSD.a_1768822126932569200^A263=1^A264=0^A265=0^A267=2^A269=0^A269=1^A146=1^A55=XAUUSD.a^A10=202^A
5|8=FIX.4.4^A9=134^A35=V^A49=YOFX2^A56=YOFX^A34=5^A52=20260119-11:28:47.630^A262=MD_GOLD_1768822127630798200^A263=1^A264=0^A265=0^A267=2^A269=0^A269=1^A146=1^A55=GOLD^A10=066^A
6|8=FIX.4.4^A9=142^A35=V^A49=YOFX2^A56=YOFX^A34=6^A52=20260119-11:28:48.355^A262=MD_GOLD/USD_1768822128355037500^A263=1^A264=0^A265=0^A267=2^A269=0^A269=1^A146=1^A55=GOLD/USD^A10=119^A
7|8=FIX.4.4^A9=132^A35=V^A49=YOFX2^A56=YOFX^A34=7^A52=20260119-11:28:49.051^A262=MD_GLD_1768822129051389500^A263=1^A264=0^A265=0^A267=2^A269=0^A269=1^A146=1^A55=GLD^A10=161^A
8|8=FIX.4.4^A9=132^A35=V^A49=YOFX2^A56=YOFX^A34=8^A52=20260119-11:28:49.785^A262=MD_XAU_1768822129785553400^A263=1^A264=0^A265=0^A267=2^A269=0^A269=1^A146=1^A55=XAU^A10=228^A
9|8=FIX.4.4^A9=142^A35=V^A49=YOFX2^A56=YOFX^A34=9^A52=20260119-11:28:50.478^A262=MD_XAUUSD-C_1768822130478124200^A263=1^A264=0^A265=0^A267=2^A269=0^A269=1^A146=1^A55=XAUUSD-C^A10=132^A
10|8=FIX.4.4^A9=143^A35=V^A49=YOFX2^A56=YOFX^A34=10^A52=20260119-11:28:51.225^A262=MD_XAUUSD_C_1768822131225268700^A263=1^A264=0^A265=0^A267=2^A269=0^A269=1^A146=1^A55=XAUUSD_C^A10=013^A
11|8=FIX.4.4^A9=147^A35=V^A49=YOFX2^A56=YOFX^A34=11^A52=20260119-11:28:51.911^A262=MD_XAUUSD-FUT_1768822131911211200^A263=1^A264=0^A265=0^A267=2^A269=0^A269=1^A146=1^A55=XAUUSD-FUT^A10=249^A
