1|8=FIX.4.4^A9=88^A35=A^A49=YOFX2^A56=YOFX^A34=1^A52=20260119-11:29:22.732^A98=0^A108=30^A553=YOFX2^A554=Brand#143^A10=151^A
2|8=FIX.4.4^A9=138^A35=V^A49=YOFX2^A56=YOFX^A34=2^A52=20260119-11:29:31.599^A262=MD_EURUSD_1768822171599297000^A263=1^A264=0^A265=0^A267=2^A269=0^A269=1^A146=1^A55=EURUSD^A10=180^A
3|8=FIX.4.4^A9=52^A35=0^A49=YOFX2^A56=YOFX^A34=3^A52=20260119-11:29:53.032^A10=146^A
4|8=FIX.4.4^A9=52^A35=0^A49=YOFX2^A56=YOFX^A34=4^A52=20260119-11:30:23.032^A10=136^A
