1|8=FIX.4.4^A9=94^A35=A^A49=YOFX1^A56=YOFX^A34=1^A52=20260117-19:04:27.976^A98=0^A108=30^A141=Y^A553=YOFX1^A554=Brand#143^A10=205^A
1|8=FIX.4.4^A9=94^A35=A^A49=YOFX1^A56=YOFX^A34=1^A52=20260117-19:04:31.193^A98=0^A108=30^A141=Y^A553=YOFX1^A554=Brand#143^A10=191^A
2|8=FIX.4.4^A9=88^A35=A^A49=YOFX1^A56=YOFX^A34=2^A52=20260118-10:16:16.453^A98=0^A108=30^A553=YOFX1^A554=Brand#143^A10=147^A
400559|8=FIX.4.4^A9=57^A35=0^A49=YOFX1^A56=YOFX^A34=400559^A52=20260118-10:16:46.639^A10=163^A
660710|8=FIX.4.4^A9=93^A35=A^A49=YOFX1^A56=YOFX^A34=660710^A52=20260118-10:18:22.729^A98=0^A108=30^A553=YOFX1^A554=Brand#143^A10=150^A
660711|8=FIX.4.4^A9=93^A35=A^A49=YOFX1^A56=YOFX^A34=660711^A52=20260118-10:18:45.285^A98=0^A108=30^A553=YOFX1^A554=Brand#143^A10=153^A
660712|8=FIX.4.4^A9=57^A35=0^A49=YOFX1^A56=YOFX^A34=660712^A52=20260118-10:19:15.578^A10=163^A
660713|8=FIX.4.4^A9=66^A35=0^A49=YOFX1^A56=YOFX^A34=660713^A52=20260118-10:19:23.156^A112=TEST^A10=173^A
660714|8=FIX.4.4^A9=57^A35=0^A49=YOFX1^A56=YOFX^A34=660714^A52=20260118-10:19:45.578^A10=168^A
660716|8=FIX.4.4^A9=93^A35=A^A49=YOFX1^A56=YOFX^A34=660716^A52=20260118-18:00:14.963^A98=0^A108=30^A553=YOFX1^A554=Brand#143^A10=156^A
660717|8=FIX.4.4^A9=57^A35=0^A49=YOFX1^A56=YOFX^A34=660717^A52=20260118-18:00:45.237^A10=161^A
660718|8=FIX.4.4^A9=66^A35=0^A49=YOFX1^A56=YOFX^A34=660718^A52=20260118-18:00:52.344^A112=TEST^A10=177^A
660719|8=FIX.4.4^A9=57^A35=0^A49=YOFX1^A56=YOFX^A34=660719^A52=20260118-18:01:15.236^A10=160^A
660721|8=FIX.4.4^A9=93^A35=A^A49=YOFX1^A56=YOFX^A34=660721^A52=20260118-18:02:50.135^A98=0^A108=30^A553=YOFX1^A554=Brand#143^A10=145^A
755176|8=FIX.4.4^A9=57^A35=0^A49=YOFX1^A56=YOFX^A34=755176^A52=20260118-18:03:20.443^A10=160^A
836857|8=FIX.4.4^A9=57^A35=0^A49=YOFX1^A56=YOFX^A34=836857^A52=20260118-18:03:50.439^A10=174^A
861929|8=FIX.4.4^A9=93^A35=A^A49=YOFX1^A56=YOFX^A34=861929^A52=20260118-18:04:51.508^A98=0^A108=30^A553=YOFX1^A554=Brand#143^A10=165^A
861930|8=FIX.4.4^A9=57^A35=0^A49=YOFX1^A56=YOFX^A34=861930^A52=20260118-18:05:21.859^A10=170^A
861931|8=FIX.4.4^A9=66^A35=0^A49=YOFX1^A56=YOFX^A34=861931^A52=20260118-18:05:28.791^A112=TEST^A10=191^A
861932|8=FIX.4.4^A9=57^A35=0^A49=YOFX1^A56=YOFX^A34=861932^A52=20260118-18:05:51.861^A10=168^A
861934|8=FIX.4.4^A9=93^A35=A^A49=YOFX1^A56=YOFX^A34=861934^A52=20260118-18:40:58.658^A98=0^A108=30^A553=YOFX1^A554=Brand#143^A10=174^A
975016|8=FIX.4.4^A9=57^A35=0^A49=YOFX1^A56=YOFX^A34=975016^A52=20260118-18:41:28.971^A10=173^A
1116099|8=FIX.4.4^A9=58^A35=0^A49=YOFX1^A56=YOFX^A34=1116099^A52=20260118-18:41:58.970^A10=223^A
1551167|8=FIX.4.4^A9=58^A35=0^A49=YOFX1^A56=YOFX^A34=1551167^A52=20260118-18:42:28.971^A10=221^A
1723872|8=FIX.4.4^A9=94^A35=A^A49=YOFX1^A56=YOFX^A34=1723872^A52=20260118-18:43:21.692^A98=0^A108=30^A553=YOFX1^A554=Brand#143^A10=213^A
1723873|8=FIX.4.4^A9=94^A35=A^A49=YOFX1^A56=YOFX^A34=1723873^A52=20260118-18:43:50.612^A98=0^A108=30^A553=YOFX1^A554=Brand#143^A10=208^A
1723874|8=FIX.4.4^A9=58^A35=0^A49=YOFX1^A56=YOFX^A34=1723874^A52=20260118-18:44:20.931^A10=217^A
1723875|8=FIX.4.4^A9=67^A35=0^A49=YOFX1^A56=YOFX^A34=1723875^A52=20260118-18:44:27.866^A112=TEST^A10=250^A
1723876|8=FIX.4.4^A9=58^A35=0^A49=YOFX1^A56=YOFX^A34=1723876^A52=20260118-18:44:50.931^A10=222^A
1723878|8=FIX.4.4^A9=94^A35=A^A49=YOFX1^A56=YOFX^A34=1723878^A52=20260118-18:47:04.798^A98=0^A108=30^A553=YOFX1^A554=Brand#143^A10=231^A
1723879|8=FIX.4.4^A9=58^A35=0^A49=YOFX1^A56=YOFX^A34=1723879^A52=20260118-18:47:34.984^A10=238^A
1723880|8=FIX.4.4^A9=67^A35=0^A49=YOFX1^A56=YOFX^A34=1723880^A52=20260118-18:47:42.092^A112=TEST^A10=237^A
1723881|8=FIX.4.4^A9=58^A35=0^A49=YOFX1^A56=YOFX^A34=1723881^A52=20260118-18:48:04.984^A10=229^A
1723883|8=FIX.4.4^A9=94^A35=A^A49=YOFX1^A56=YOFX^A34=1723883^A52=20260118-18:49:02.274^A98=0^A108=30^A553=YOFX1^A554=Brand#143^A10=216^A
1738677|8=FIX.4.4^A9=58^A35=0^A49=YOFX1^A56=YOFX^A34=1738677^A52=20260118-18:49:32.518^A10=233^A
1846105|8=FIX.4.4^A9=94^A35=A^A49=YOFX1^A56=YOFX^A34=1846105^A52=20260118-18:49:39.607^A98=0^A108=30^A553=YOFX1^A554=Brand#143^A10=219^A
2237482|8=FIX.4.4^A9=58^A35=0^A49=YOFX1^A56=YOFX^A34=2237482^A52=20260118-18:50:02.524^A10=208^A
2362547|8=FIX.4.4^A9=58^A35=0^A49=YOFX1^A56=YOFX^A34=2362547^A52=20260118-18:50:09.871^A10=221^A
2501666|8=FIX.4.4^A9=67^A35=0^A49=YOFX1^A56=YOFX^A34=2501666^A52=20260118-18:50:16.863^A112=TEST^A10=235^A
2804859|8=FIX.4.4^A9=58^A35=0^A49=YOFX1^A56=YOFX^A34=2804859^A52=20260118-18:50:32.518^A10=222^A
2949131|8=FIX.4.4^A9=58^A35=0^A49=YOFX1^A56=YOFX^A34=2949131^A52=20260118-18:50:39.871^A10=224^A
3447771|8=FIX.4.4^A9=94^A35=A^A49=YOFX1^A56=YOFX^A34=3447771^A52=20260118-18:52:21.054^A98=0^A108=30^A553=YOFX1^A554=Brand#143^A10=208^A
3447772|8=FIX.4.4^A9=58^A35=0^A49=YOFX1^A56=YOFX^A34=3447772^A52=20260118-18:52:51.703^A10=219^A
3447773|8=FIX.4.4^A9=67^A35=0^A49=YOFX1^A56=YOFX^A34=3447773^A52=20260118-18:52:58.296^A112=TEST^A10=252^A
3447774|8=FIX.4.4^A9=58^A35=0^A49=YOFX1^A56=YOFX^A34=3447774^A52=20260118-18:53:21.703^A10=219^A
3447776|8=FIX.4.4^A9=94^A35=A^A49=YOFX1^A56=YOFX^A34=3447776^A52=20260118-18:56:33.706^A98=0^A108=30^A553=YOFX1^A554=Brand#143^A10=224^A
3447777|8=FIX.4.4^A9=58^A35=0^A49=YOFX1^A56=YOFX^A34=3447777^A52=20260118-18:57:03.946^A10=235^A
3447778|8=FIX.4.4^A9=67^A35=0^A49=YOFX1^A56=YOFX^A34=3447778^A52=20260118-18:57:10.972^A112=TEST^A10=251^A
3447779|8=FIX.4.4^A9=58^A35=0^A49=YOFX1^A56=YOFX^A34=3447779^A52=20260118-18:57:33.940^A10=234^A
3447781|8=FIX.4.4^A9=94^A35=A^A49=YOFX1^A56=YOFX^A34=3447781^A52=20260118-19:41:46.260^A98=0^A108=30^A553=YOFX1^A554=Brand#143^A10=214^A
3447782|8=FIX.4.4^A9=58^A35=0^A49=YOFX1^A56=YOFX^A34=3447782^A52=20260118-19:42:16.471^A10=223^A
3447783|8=FIX.4.4^A9=67^A35=0^A49=YOFX1^A56=YOFX^A34=3447783^A52=20260118-19:42:23.469^A112=TEST^A10=247^A
3447784|8=FIX.4.4^A9=58^A35=0^A49=YOFX1^A56=YOFX^A34=3447784^A52=20260118-19:42:46.553^A10=229^A
