1|8=FIX.4.4^A9=88^A35=A^A49=YOFX2^A56=YOFX^A34=1^A52=20260118-18:52:26.894^A98=0^A108=30^A553=YOFX2^A554=Brand#143^A10=166^A
2|8=FIX.4.4^A9=52^A35=0^A49=YOFX2^A56=YOFX^A34=2^A52=20260118-18:52:57.132^A10=152^A
3|8=FIX.4.4^A9=52^A35=0^A49=YOFX2^A56=YOFX^A34=3^A52=20260118-18:53:27.133^A10=152^A
4|8=FIX.4.4^A9=52^A35=0^A49=YOFX2^A56=YOFX^A34=4^A52=20260118-18:53:57.133^A10=156^A
5|8=FIX.4.4^A9=52^A35=0^A49=YOFX2^A56=YOFX^A34=5^A52=20260118-18:54:27.133^A10=155^A
6|8=FIX.4.4^A9=52^A35=0^A49=YOFX2^A56=YOFX^A34=6^A52=20260118-18:54:57.132^A10=158^A
7|8=FIX.4.4^A9=52^A35=0^A49=YOFX2^A56=YOFX^A34=7^A52=20260118-18:55:27.133^A10=158^A
8|8=FIX.4.4^A9=52^A35=0^A49=YOFX2^A56=YOFX^A34=8^A52=20260118-18:55:57.134^A10=163^A
9|8=FIX.4.4^A9=88^A35=A^A49=YOFX2^A56=YOFX^A34=9^A52=20260118-18:56:47.999^A98=0^A108=30^A553=YOFX2^A554=Brand#143^A10=187^A
181236|8=FIX.4.4^A9=57^A35=0^A49=YOFX2^A56=YOFX^A34=181236^A52=20260118-18:57:18.250^A10=163^A
356905|8=FIX.4.4^A9=57^A35=0^A49=YOFX2^A56=YOFX^A34=356905^A52=20260118-18:57:48.251^A10=174^A
509341|8=FIX.4.4^A9=57^A35=0^A49=YOFX2^A56=YOFX^A34=509341^A52=20260118-18:58:18.250^A10=165^A
