1|8=FIX.4.4^A9=94^A35=A^A49=YOFX1^A56=YOFX^A34=1^A52=20260117-19:04:27.976^A98=0^A108=30^A141=Y^A553=YOFX1^A554=Brand#143^A10=205^A
1|8=FIX.4.4^A9=94^A35=A^A49=YOFX1^A56=YOFX^A34=1^A52=20260117-19:04:31.193^A98=0^A108=30^A141=Y^A553=YOFX1^A554=Brand#143^A10=191^A
2|8=FIX.4.4^A9=88^A35=A^A49=YOFX1^A56=YOFX^A34=2^A52=20260118-10:16:16.453^A98=0^A108=30^A553=YOFX1^A554=Brand#143^A10=147^A
400559|8=FIX.4.4^A9=57^A35=0^A49=YOFX1^A56=YOFX^A34=400559^A52=20260118-10:16:46.639^A10=163^A
660710|8=FIX.4.4^A9=93^A35=A^A49=YOFX1^A56=YOFX^A34=660710^A52=20260118-10:18:22.729^A98=0^A108=30^A553=YOFX1^A554=Brand#143^A10=150^A
660711|8=FIX.4.4^A9=93^A35=A^A49=YOFX1^A56=YOFX^A34=660711^A52=20260118-10:18:45.285^A98=0^A108=30^A553=YOFX1^A554=Brand#143^A10=153^A
660712|8=FIX.4.4^A9=57^A35=0^A49=YOFX1^A56=YOFX^A34=660712^A52=20260118-10:19:15.578^A10=163^A
660713|8=FIX.4.4^A9=66^A35=0^A49=YOFX1^A56=YOFX^A34=660713^A52=20260118-10:19:23.156^A112=TEST^A10=173^A
660714|8=FIX.4.4^A9=57^A35=0^A49=YOFX1^A56=YOFX^A34=660714^A52=20260118-10:19:45.578^A10=168^A
660716|8=FIX.4.4^A9=93^A35=A^A49=YOFX1^A56=YOFX^A34=660716^A52=20260118-18:00:14.963^A98=0^A108=30^A553=YOFX1^A554=Brand#143^A10=156^A
660717|8=FIX.4.4^A9=57^A35=0^A49=YOFX1^A56=YOFX^A34=660717^A52=20260118-18:00:45.237^A10=161^A
660718|8=FIX.4.4^A9=66^A35=0^A49=YOFX1^A56=YOFX^A34=660718^A52=20260118-18:00:52.344^A112=TEST^A10=177^A
660719|8=FIX.4.4^A9=57^A35=0^A49=YOFX1^A56=YOFX^A34=660719^A52=20260118-18:01:15.236^A10=160^A
660721|8=FIX.4.4^A9=93^A35=A^A49=YOFX1^A56=YOFX^A34=660721^A52=20260118-18:02:50.135^A98=0^A108=30^A553=YOFX1^A554=Brand#143^A10=145^A
755176|8=FIX.4.4^A9=57^A35=0^A49=YOFX1^A56=YOFX^A34=755176^A52=20260118-18:03:20.443^A10=160^A
836857|8=FIX.4.4^A9=57^A35=0^A49=YOFX1^A56=YOFX^A34=836857^A52=20260118-18:03:50.439^A10=174^A
861929|8=FIX.4.4^A9=93^A35=A^A49=YOFX1^A56=YOFX^A34=861929^A52=20260118-18:04:51.508^A98=0^A108=30^A553=YOFX1^A554=Brand#143^A10=165^A
861930|8=FIX.4.4^A9=57^A35=0^A49=YOFX1^A56=YOFX^A34=861930^A52=20260118-18:05:21.859^A10=170^A
861931|8=FIX.4.4^A9=66^A35=0^A49=YOFX1^A56=YOFX^A34=861931^A52=20260118-18:05:28.791^A112=TEST^A10=191^A
861932|8=FIX.4.4^A9=57^A35=0^A49=YOFX1^A56=YOFX^A34=861932^A52=20260118-18:05:51.861^A10=168^A
861934|8=FIX.4.4^A9=93^A35=A^A49=YOFX1^A56=YOFX^A34=861934^A52=20260118-18:40:58.658^A98=0^A108=30^A553=YOFX1^A554=Brand#143^A10=174^A
975016|8=FIX.4.4^A9=57^A35=0^A49=YOFX1^A56=YOFX^A34=975016^A52=20260118-18:41:28.971^A10=173^A
1116099|8=FIX.4.4^A9=58^A35=0^A49=YOFX1^A56=YOFX^A34=1116099^A52=20260118-18:41:58.970^A10=223^A
1551167|8=FIX.4.4^A9=58^A35=0^A49=YOFX1^A56=YOFX^A34=1551167^A52=20260118-18:42:28.971^A10=221^A
1723872|8=FIX.4.4^A9=94^A35=A^A49=YOFX1^A56=YOFX^A34=1723872^A52=20260118-18:43:21.692^A98=0^A108=30^A553=YOFX1^A554=Brand#143^A10=213^A
1723873|8=FIX.4.4^A9=94^A35=A^A49=YOFX1^A56=YOFX^A34=1723873^A52=20260118-18:43:50.612^A98=0^A108=30^A553=YOFX1^A554=Brand#143^A10=208^A
1723874|8=FIX.4.4^A9=58^A35=0^A49=YOFX1^A56=YOFX^A34=1723874^A52=20260118-18:44:20.931^A10=217^A
1723875|8=FIX.4.4^A9=67^A35=0^A49=YOFX1^A56=YOFX^A34=1723875^A52=20260118-18:44:27.866^A112=TEST^A10=250^A
1723876|8=FIX.4.4^A9=58^A35=0^A49=YOFX1^A56=YOFX^A34=1723876^A52=20260118-18:44:50.931^A10=222^A
1723878|8=FIX.4.4^A9=94^A35=A^A49=YOFX1^A56=YOFX^A34=1723878^A52=20260118-18:47:04.798^A98=0^A108=30^A553=YOFX1^A554=Brand#143^A10=231^A
1723879|8=FIX.4.4^A9=58^A35=0^A49=YOFX1^A56=YOFX^A34=1723879^A52=20260118-18:47:34.984^A10=238^A
1723880|8=FIX.4.4^A9=67^A35=0^A49=YOFX1^A56=YOFX^A34=1723880^A52=20260118-18:47:42.092^A112=TEST^A10=237^A
1723881|8=FIX.4.4^A9=58^A35=0^A49=YOFX1^A56=YOFX^A34=1723881^A52=20260118-18:48:04.984^A10=229^A
1723883|8=FIX.4.4^A9=94^A35=A^A49=YOFX1^A56=YOFX^A34=1723883^A52=20260118-18:49:02.274^A98=0^A108=30^A553=YOFX1^A554=Brand#143^A10=216^A
1738677|8=FIX.4.4^A9=58^A35=0^A49=YOFX1^A56=YOFX^A34=1738677^A52=20260118-18:49:32.518^A10=233^A
1846105|8=FIX.4.4^A9=94^A35=A^A49=YOFX1^A56=YOFX^A34=1846105^A52=20260118-18:49:39.607^A98=0^A108=30^A553=YOFX1^A554=Brand#143^A10=219^A
2237482|8=FIX.4.4^A9=58^A35=0^A49=YOFX1^A56=YOFX^A34=2237482^A52=20260118-18:50:02.524^A10=208^A
2362547|8=FIX.4.4^A9=58^A35=0^A49=YOFX1^A56=YOFX^A34=2362547^A52=20260118-18:50:09.871^A10=221^A
2501666|8=FIX.4.4^A9=67^A35=0^A49=YOFX1^A56=YOFX^A34=2501666^A52=20260118-18:50:16.863^A112=TEST^A10=235^A
2804859|8=FIX.4.4^A9=58^A35=0^A49=YOFX1^A56=YOFX^A34=2804859^A52=20260118-18:50:32.518^A10=222^A
2949131|8=FIX.4.4^A9=58^A35=0^A49=YOFX1^A56=YOFX^A34=2949131^A52=20260118-18:50:39.871^A10=224^A
3447771|8=FIX.4.4^A9=94^A35=A^A49=YOFX1^A56=YOFX^A34=3447771^A52=20260118-18:52:21.054^A98=0^A108=30^A553=YOFX1^A554=Brand#143^A10=208^A
3447772|8=FIX.4.4^A9=58^A35=0^A49=YOFX1^A56=YOFX^A34=3447772^A52=20260118-18:52:51.703^A10=219^A
3447773|8=FIX.4.4^A9=67^A35=0^A49=YOFX1^A56=YOFX^A34=3447773^A52=20260118-18:52:58.296^A112=TEST^A10=252^A
3447774|8=FIX.4.4^A9=58^A35=0^A49=YOFX1^A56=YOFX^A34=3447774^A52=20260118-18:53:21.703^A10=219^A
3447776|8=FIX.4.4^A9=94^A35=A^A49=YOFX1^A56=YOFX^A34=3447776^A52=20260118-18:56:33.706^A98=0^A108=30^A553=YOFX1^A554=Brand#143^A10=224^A
3447777|8=FIX.4.4^A9=58^A35=0^A49=YOFX1^A56=YOFX^A34=3447777^A52=20260118-18:57:03.946^A10=235^A
3447778|8=FIX.4.4^A9=67^A35=0^A49=YOFX1^A56=YOFX^A34=3447778^A52=20260118-18:57:10.972^A112=TEST^A10=251^A
3447779|8=FIX.4.4^A9=58^A35=0^A49=YOFX1^A56=YOFX^A34=3447779^A52=20260118-18:57:33.940^A10=234^A
3447781|8=FIX.4.4^A9=94^A35=A^A49=YOFX1^A56=YOFX^A34=3447781^A52=20260118-19:41:46.260^A98=0^A108=30^A553=YOFX1^A554=Brand#143^A10=214^A
3447782|8=FIX.4.4^A9=58^A35=0^A49=YOFX1^A56=YOFX^A34=3447782^A52=20260118-19:42:16.471^A10=223^A
3447783|8=FIX.4.4^A9=67^A35=0^A49=YOFX1^A56=YOFX^A34=3447783^A52=20260118-19:42:23.469^A112=TEST^A10=247^A
3447784|8=FIX.4.4^A9=58^A35=0^A49=YOFX1^A56=YOFX^A34=3447784^A52=20260118-19:42:46.553^A10=229^A
3447786|8=FIX.4.4^A9=94^A35=A^A49=YOFX1^A56=YOFX^A34=3447786^A52=20260119-09:53:28.237^A98=0^A108=30^A553=YOFX1^A554=Brand#143^A10=226^A
3502305|8=FIX.4.4^A9=58^A35=0^A49=YOFX1^A56=YOFX^A34=3502305^A52=20260119-09:53:58.496^A10=221^A
3557385|8=FIX.4.4^A9=58^A35=0^A49=YOFX1^A56=YOFX^A34=3557385^A52=20260119-09:54:28.496^A10=237^A
3654294|8=FIX.4.4^A9=58^A35=0^A49=YOFX1^A56=YOFX^A34=3654294^A52=20260119-09:54:58.495^A10=236^A
1|8=FIX.4.4^A9=88^A35=A^A49=YOFX1^A56=YOFX^A34=1^A52=20260119-09:58:41.353^A98=0^A108=30^A553=YOFX1^A554=Brand#143^A10=158^A
2|8=FIX.4.4^A9=52^A35=0^A49=YOFX1^A56=YOFX^A34=2^A52=20260119-09:59:11.575^A10=160^A
3|8=FIX.4.4^A9=52^A35=0^A49=YOFX1^A56=YOFX^A34=3^A52=20260119-09:59:41.575^A10=164^A
4|8=FIX.4.4^A9=52^A35=0^A49=YOFX1^A56=YOFX^A34=4^A52=20260119-10:00:11.575^A10=140^A
5|8=FIX.4.4^A9=52^A35=0^A49=YOFX1^A56=YOFX^A34=5^A52=20260119-10:00:41.575^A10=144^A
6|8=FIX.4.4^A9=52^A35=0^A49=YOFX1^A56=YOFX^A34=6^A52=20260119-10:01:11.575^A10=143^A
7|8=FIX.4.4^A9=52^A35=0^A49=YOFX1^A56=YOFX^A34=7^A52=20260119-10:01:41.574^A10=146^A
8|8=FIX.4.4^A9=52^A35=0^A49=YOFX1^A56=YOFX^A34=8^A52=20260119-10:02:11.575^A10=146^A
9|8=FIX.4.4^A9=52^A35=0^A49=YOFX1^A56=YOFX^A34=9^A52=20260119-10:02:41.575^A10=150^A
10|8=FIX.4.4^A9=53^A35=0^A49=YOFX1^A56=YOFX^A34=10^A52=20260119-10:03:11.575^A10=189^A
11|8=FIX.4.4^A9=53^A35=0^A49=YOFX1^A56=YOFX^A34=11^A52=20260119-10:03:41.575^A10=193^A
12|8=FIX.4.4^A9=89^A35=A^A49=YOFX1^A56=YOFX^A34=12^A52=20260119-10:04:47.195^A98=0^A108=30^A553=YOFX1^A554=Brand#143^A10=202^A
13|8=FIX.4.4^A9=53^A35=0^A49=YOFX1^A56=YOFX^A34=13^A52=20260119-10:05:17.454^A10=196^A
14|8=FIX.4.4^A9=62^A35=0^A49=YOFX1^A56=YOFX^A34=14^A52=20260119-10:05:24.184^A112=TEST^A10=213^A
15|8=FIX.4.4^A9=53^A35=0^A49=YOFX1^A56=YOFX^A34=15^A52=20260119-10:05:47.454^A10=201^A
17|8=FIX.4.4^A9=89^A35=A^A49=YOFX1^A56=YOFX^A34=17^A52=20260119-10:07:29.515^A98=0^A108=30^A553=YOFX1^A554=Brand#143^A10=206^A
52454|8=FIX.4.4^A9=56^A35=0^A49=YOFX1^A56=YOFX^A34=52454^A52=20260119-10:07:59.795^A10=119^A
102233|8=FIX.4.4^A9=57^A35=0^A49=YOFX1^A56=YOFX^A34=102233^A52=20260119-10:08:29.795^A10=157^A
153695|8=FIX.4.4^A9=57^A35=0^A49=YOFX1^A56=YOFX^A34=153695^A52=20260119-10:08:59.795^A10=178^A
202758|8=FIX.4.4^A9=57^A35=0^A49=YOFX1^A56=YOFX^A34=202758^A52=20260119-10:09:29.802^A10=160^A
253826|8=FIX.4.4^A9=57^A35=0^A49=YOFX1^A56=YOFX^A34=253826^A52=20260119-10:09:59.795^A10=176^A
302924|8=FIX.4.4^A9=57^A35=0^A49=YOFX1^A56=YOFX^A34=302924^A52=20260119-10:10:29.801^A10=147^A
312475|8=FIX.4.4^A9=93^A35=A^A49=YOFX1^A56=YOFX^A34=312475^A52=20260119-10:10:47.038^A98=0^A108=30^A553=YOFX1^A554=Brand#143^A10=145^A
380558|8=FIX.4.4^A9=57^A35=0^A49=YOFX1^A56=YOFX^A34=380558^A52=20260119-10:11:17.331^A10=152^A
444144|8=FIX.4.4^A9=57^A35=0^A49=YOFX1^A56=YOFX^A34=444144^A52=20260119-10:11:47.335^A10=151^A
549473|8=FIX.4.4^A9=57^A35=0^A49=YOFX1^A56=YOFX^A34=549473^A52=20260119-10:12:17.331^A10=156^A
624954|8=FIX.4.4^A9=93^A35=A^A49=YOFX1^A56=YOFX^A34=624954^A52=20260119-10:15:15.632^A98=0^A108=30^A553=YOFX1^A554=Brand#143^A10=153^A
624955|8=FIX.4.4^A9=57^A35=0^A49=YOFX1^A56=YOFX^A34=624955^A52=20260119-10:15:45.855^A10=170^A
624956|8=FIX.4.4^A9=66^A35=0^A49=YOFX1^A56=YOFX^A34=624956^A52=20260119-10:15:52.636^A112=TEST^A10=184^A
624957|8=FIX.4.4^A9=57^A35=0^A49=YOFX1^A56=YOFX^A34=624957^A52=20260119-10:16:15.855^A10=170^A
624959|8=FIX.4.4^A9=93^A35=A^A49=YOFX1^A56=YOFX^A34=624959^A52=20260119-10:46:07.098^A98=0^A108=30^A553=YOFX1^A554=Brand#143^A10=169^A
667692|8=FIX.4.4^A9=57^A35=0^A49=YOFX1^A56=YOFX^A34=667692^A52=20260119-10:46:37.416^A10=173^A
671757|8=FIX.4.4^A9=57^A35=0^A49=YOFX1^A56=YOFX^A34=671757^A52=20260119-10:47:37.474^A10=175^A
794672|8=FIX.4.4^A9=57^A35=0^A49=YOFX1^A56=YOFX^A34=794672^A52=20260119-10:48:07.408^A10=172^A
995538|8=FIX.4.4^A9=93^A35=A^A49=YOFX1^A56=YOFX^A34=995538^A52=20260119-11:12:28.639^A98=0^A108=30^A553=YOFX1^A554=Brand#143^A10=171^A
995539|8=FIX.4.4^A9=57^A35=0^A49=YOFX1^A56=YOFX^A34=995539^A52=20260119-11:12:58.870^A10=178^A
995540|8=FIX.4.4^A9=66^A35=0^A49=YOFX1^A56=YOFX^A34=995540^A52=20260119-11:13:05.682^A112=TEST^A10=182^A
995541|8=FIX.4.4^A9=57^A35=0^A49=YOFX1^A56=YOFX^A34=995541^A52=20260119-11:13:28.868^A10=176^A
995543|8=FIX.4.4^A9=93^A35=A^A49=YOFX1^A56=YOFX^A34=995543^A52=20260119-11:14:07.489^A98=0^A108=30^A553=YOFX1^A554=Brand#143^A10=169^A
995544|8=FIX.4.4^A9=57^A35=0^A49=YOFX1^A56=YOFX^A34=995544^A52=20260119-11:14:37.758^A10=178^A
995545|8=FIX.4.4^A9=66^A35=0^A49=YOFX1^A56=YOFX^A34=995545^A52=20260119-11:14:44.532^A112=TEST^A10=185^A
995546|8=FIX.4.4^A9=57^A35=0^A49=YOFX1^A56=YOFX^A34=995546^A52=20260119-11:15:07.758^A10=178^A
995548|8=FIX.4.4^A9=93^A35=A^A49=YOFX1^A56=YOFX^A34=995548^A52=20260119-11:17:56.073^A98=0^A108=30^A553=YOFX1^A554=Brand#143^A10=170^A
1038491|8=FIX.4.4^A9=58^A35=0^A49=YOFX1^A56=YOFX^A34=1038491^A52=20260119-11:18:26.279^A10=217^A
1084562|8=FIX.4.4^A9=58^A35=0^A49=YOFX1^A56=YOFX^A34=1084562^A52=20260119-11:18:56.279^A10=220^A
1142857|8=FIX.4.4^A9=58^A35=0^A49=YOFX1^A56=YOFX^A34=1142857^A52=20260119-11:19:26.279^A10=220^A
1270869|8=FIX.4.4^A9=94^A35=A^A49=YOFX1^A56=YOFX^A34=1270869^A52=20260119-11:20:18.224^A98=0^A108=30^A553=YOFX1^A554=Brand#143^A10=202^A
1346811|8=FIX.4.4^A9=58^A35=0^A49=YOFX1^A56=YOFX^A34=1346811^A52=20260119-11:20:48.444^A10=206^A
1363286|8=FIX.4.4^A9=67^A35=0^A49=YOFX1^A56=YOFX^A34=1363286^A52=20260119-11:20:55.242^A112=TEST^A10=223^A
1403750|8=FIX.4.4^A9=58^A35=0^A49=YOFX1^A56=YOFX^A34=1403750^A52=20260119-11:21:18.444^A10=200^A
1|8=FIX.4.4^A9=88^A35=A^A49=YOFX1^A56=YOFX^A34=1^A52=20260120-06:27:19.693^A98=0^A108=30^A553=YOFX1^A554=Brand#143^A10=155^A
2|8=FIX.4.4^A9=52^A35=0^A49=YOFX1^A56=YOFX^A34=2^A52=20260120-06:27:49.892^A10=157^A
3|8=FIX.4.4^A9=52^A35=0^A49=YOFX1^A56=YOFX^A34=3^A52=20260120-06:28:19.892^A10=156^A
4|8=FIX.4.4^A9=52^A35=0^A49=YOFX1^A56=YOFX^A34=4^A52=20260120-06:28:49.892^A10=160^A
5|8=FIX.4.4^A9=52^A35=0^A49=YOFX1^A56=YOFX^A34=5^A52=20260120-06:29:19.892^A10=159^A
6|8=FIX.4.4^A9=52^A35=0^A49=YOFX1^A56=YOFX^A34=6^A52=20260120-06:29:49.892^A10=163^A
7|8=FIX.4.4^A9=52^A35=0^A49=YOFX1^A56=YOFX^A34=7^A52=20260120-06:30:19.892^A10=153^A
9|8=FIX.4.4^A9=88^A35=A^A49=YOFX1^A56=YOFX^A34=9^A52=20260120-06:52:34.146^A98=0^A108=30^A553=YOFX1^A554=Brand#143^A10=151^A
10|8=FIX.4.4^A9=53^A35=0^A49=YOFX1^A56=YOFX^A34=10^A52=20260120-06:53:04.354^A10=188^A
11|8=FIX.4.4^A9=62^A35=0^A49=YOFX1^A56=YOFX^A34=11^A52=20260120-06:53:11.204^A112=TEST^A10=199^A
12|8=FIX.4.4^A9=53^A35=0^A49=YOFX1^A56=YOFX^A34=12^A52=20260120-06:53:34.358^A10=197^A
