1|8=FIX.4.4^A9=88^A35=A^A49=YOFX2^A56=YOFX^A34=1^A52=20260118-18:52:26.894^A98=0^A108=30^A553=YOFX2^A554=Brand#143^A10=166^A
2|8=FIX.4.4^A9=52^A35=0^A49=YOFX2^A56=YOFX^A34=2^A52=20260118-18:52:57.132^A10=152^A
3|8=FIX.4.4^A9=52^A35=0^A49=YOFX2^A56=YOFX^A34=3^A52=20260118-18:53:27.133^A10=152^A
4|8=FIX.4.4^A9=52^A35=0^A49=YOFX2^A56=YOFX^A34=4^A52=20260118-18:53:57.133^A10=156^A
5|8=FIX.4.4^A9=52^A35=0^A49=YOFX2^A56=YOFX^A34=5^A52=20260118-18:54:27.133^A10=155^A
6|8=FIX.4.4^A9=52^A35=0^A49=YOFX2^A56=YOFX^A34=6^A52=20260118-18:54:57.132^A10=158^A
7|8=FIX.4.4^A9=52^A35=0^A49=YOFX2^A56=YOFX^A34=7^A52=20260118-18:55:27.133^A10=158^A
8|8=FIX.4.4^A9=52^A35=0^A49=YOFX2^A56=YOFX^A34=8^A52=20260118-18:55:57.134^A10=163^A
9|8=FIX.4.4^A9=88^A35=A^A49=YOFX2^A56=YOFX^A34=9^A52=20260118-18:56:47.999^A98=0^A108=30^A553=YOFX2^A554=Brand#143^A10=187^A
181236|8=FIX.4.4^A9=57^A35=0^A49=YOFX2^A56=YOFX^A34=181236^A52=20260118-18:57:18.250^A10=163^A
356905|8=FIX.4.4^A9=57^A35=0^A49=YOFX2^A56=YOFX^A34=356905^A52=20260118-18:57:48.251^A10=174^A
509341|8=FIX.4.4^A9=57^A35=0^A49=YOFX2^A56=YOFX^A34=509341^A52=20260118-18:58:18.250^A10=165^A
524294|8=FIX.4.4^A9=93^A35=A^A49=YOFX2^A56=YOFX^A34=524294^A52=20260119-09:53:30.214^A98=0^A108=30^A553=YOFX2^A554=Brand#143^A10=154^A
524295|8=FIX.4.4^A9=143^A35=V^A49=YOFX2^A56=YOFX^A34=524295^A52=20260119-09:53:31.135^A262=MD_EURUSD_1768816411135420700^A263=1^A264=1^A265=0^A267=2^A269=0^A269=1^A146=1^A55=EURUSD^A10=157^A
524296|8=FIX.4.4^A9=143^A35=V^A49=YOFX2^A56=YOFX^A34=524296^A52=20260119-09:53:31.236^A262=MD_GBPUSD_1768816411236758000^A263=1^A264=1^A265=0^A267=2^A269=0^A269=1^A146=1^A55=GBPUSD^A10=131^A
524297|8=FIX.4.4^A9=143^A35=V^A49=YOFX2^A56=YOFX^A34=524297^A52=20260119-09:53:31.337^A262=MD_USDJPY_1768816411337619400^A263=1^A264=1^A265=0^A267=2^A269=0^A269=1^A146=1^A55=USDJPY^A10=188^A
524298|8=FIX.4.4^A9=143^A35=V^A49=YOFX2^A56=YOFX^A34=524298^A52=20260119-09:53:31.438^A262=MD_AUDUSD_1768816411438936100^A263=1^A264=1^A265=0^A267=2^A269=0^A269=1^A146=1^A55=AUDUSD^A10=142^A
524299|8=FIX.4.4^A9=143^A35=V^A49=YOFX2^A56=YOFX^A34=524299^A52=20260119-09:53:31.539^A262=MD_USDCAD_1768816411539240400^A263=1^A264=1^A265=0^A267=2^A269=0^A269=1^A146=1^A55=USDCAD^A10=102^A
524300|8=FIX.4.4^A9=143^A35=V^A49=YOFX2^A56=YOFX^A34=524300^A52=20260119-09:53:31.640^A262=MD_USDCHF_1768816411640005800^A263=1^A264=1^A265=0^A267=2^A269=0^A269=1^A146=1^A55=USDCHF^A10=092^A
524301|8=FIX.4.4^A9=143^A35=V^A49=YOFX2^A56=YOFX^A34=524301^A52=20260119-09:53:31.742^A262=MD_NZDUSD_1768816411742454300^A263=1^A264=1^A265=0^A267=2^A269=0^A269=1^A146=1^A55=NZDUSD^A10=156^A
524302|8=FIX.4.4^A9=143^A35=V^A49=YOFX2^A56=YOFX^A34=524302^A52=20260119-09:53:31.846^A262=MD_EURGBP_1768816411846672400^A263=1^A264=1^A265=0^A267=2^A269=0^A269=1^A146=1^A55=EURGBP^A10=132^A
524303|8=FIX.4.4^A9=143^A35=V^A49=YOFX2^A56=YOFX^A34=524303^A52=20260119-09:53:31.947^A262=MD_EURJPY_1768816411947341000^A263=1^A264=1^A265=0^A267=2^A269=0^A269=1^A146=1^A55=EURJPY^A10=178^A
524304|8=FIX.4.4^A9=143^A35=V^A49=YOFX2^A56=YOFX^A34=524304^A52=20260119-09:53:32.048^A262=MD_GBPJPY_1768816412048413500^A263=1^A264=1^A265=0^A267=2^A269=0^A269=1^A146=1^A55=GBPJPY^A10=132^A
524305|8=FIX.4.4^A9=143^A35=V^A49=YOFX2^A56=YOFX^A34=524305^A52=20260119-09:53:32.150^A262=MD_AUDJPY_1768816412150441200^A263=1^A264=1^A265=0^A267=2^A269=0^A269=1^A146=1^A55=AUDJPY^A10=121^A
524306|8=FIX.4.4^A9=143^A35=V^A49=YOFX2^A56=YOFX^A34=524306^A52=20260119-09:53:32.250^A262=MD_AUDCAD_1768816412250981000^A263=1^A264=1^A265=0^A267=2^A269=0^A269=1^A146=1^A55=AUDCAD^A10=045^A
524307|8=FIX.4.4^A9=143^A35=V^A49=YOFX2^A56=YOFX^A34=524307^A52=20260119-09:53:32.354^A262=MD_AUDCHF_1768816412354891500^A263=1^A264=1^A265=0^A267=2^A269=0^A269=1^A146=1^A55=AUDCHF^A10=079^A
524308|8=FIX.4.4^A9=143^A35=V^A49=YOFX2^A56=YOFX^A34=524308^A52=20260119-09:53:32.455^A262=MD_AUDNZD_1768816412455739100^A263=1^A264=1^A265=0^A267=2^A269=0^A269=1^A146=1^A55=AUDNZD^A10=135^A
524309|8=FIX.4.4^A9=143^A35=V^A49=YOFX2^A56=YOFX^A34=524309^A52=20260119-09:53:32.556^A262=MD_AUDSGD_1768816412556062000^A263=1^A264=1^A265=0^A267=2^A269=0^A269=1^A146=1^A55=AUDSGD^A10=100^A
524310|8=FIX.4.4^A9=143^A35=V^A49=YOFX2^A56=YOFX^A34=524310^A52=20260119-09:53:32.656^A262=MD_AUDHKD_1768816412656919800^A263=1^A264=1^A265=0^A267=2^A269=0^A269=1^A146=1^A55=AUDHKD^A10=099^A
524311|8=FIX.4.4^A9=57^A35=0^A49=YOFX2^A56=YOFX^A34=524311^A52=20260119-09:54:00.498^A10=161^A
524312|8=FIX.4.4^A9=66^A35=0^A49=YOFX2^A56=YOFX^A34=524312^A52=20260119-09:54:07.274^A112=TEST^A10=179^A
524313|8=FIX.4.4^A9=57^A35=0^A49=YOFX2^A56=YOFX^A34=524313^A52=20260119-09:54:30.495^A10=163^A
1|8=FIX.4.4^A9=88^A35=A^A49=YOFX2^A56=YOFX^A34=1^A52=20260119-09:58:43.131^A98=0^A108=30^A553=YOFX2^A554=Brand#143^A10=156^A
2|8=FIX.4.4^A9=138^A35=V^A49=YOFX2^A56=YOFX^A34=2^A52=20260119-09:58:44.356^A262=MD_EURUSD_1768816724356929700^A263=1^A264=1^A265=0^A267=2^A269=0^A269=1^A146=1^A55=EURUSD^A10=192^A
3|8=FIX.4.4^A9=138^A35=V^A49=YOFX2^A56=YOFX^A34=3^A52=20260119-09:58:44.457^A262=MD_GBPUSD_1768816724457997500^A263=1^A264=1^A265=0^A267=2^A269=0^A269=1^A146=1^A55=GBPUSD^A10=162^A
4|8=FIX.4.4^A9=138^A35=V^A49=YOFX2^A56=YOFX^A34=4^A52=20260119-09:58:44.559^A262=MD_USDJPY_1768816724559056500^A263=1^A264=1^A265=0^A267=2^A269=0^A269=1^A146=1^A55=USDJPY^A10=207^A
5|8=FIX.4.4^A9=138^A35=V^A49=YOFX2^A56=YOFX^A34=5^A52=20260119-09:58:44.660^A262=MD_AUDUSD_1768816724660042700^A263=1^A264=1^A265=0^A267=2^A269=0^A269=1^A146=1^A55=AUDUSD^A10=141^A
6|8=FIX.4.4^A9=138^A35=V^A49=YOFX2^A56=YOFX^A34=6^A52=20260119-09:58:44.760^A262=MD_USDCAD_1768816724760994300^A263=1^A264=1^A265=0^A267=2^A269=0^A269=1^A146=1^A55=USDCAD^A10=120^A
7|8=FIX.4.4^A9=138^A35=V^A49=YOFX2^A56=YOFX^A34=7^A52=20260119-09:58:44.862^A262=MD_USDCHF_1768816724862089100^A263=1^A264=1^A265=0^A267=2^A269=0^A269=1^A146=1^A55=USDCHF^A10=138^A
8|8=FIX.4.4^A9=138^A35=V^A49=YOFX2^A56=YOFX^A34=8^A52=20260119-09:58:44.962^A262=MD_NZDUSD_1768816724962721900^A263=1^A264=1^A265=0^A267=2^A269=0^A269=1^A146=1^A55=NZDUSD^A10=196^A
9|8=FIX.4.4^A9=138^A35=V^A49=YOFX2^A56=YOFX^A34=9^A52=20260119-09:58:45.063^A262=MD_EURGBP_1768816725063660200^A263=1^A264=1^A265=0^A267=2^A269=0^A269=1^A146=1^A55=EURGBP^A10=140^A
10|8=FIX.4.4^A9=139^A35=V^A49=YOFX2^A56=YOFX^A34=10^A52=20260119-09:58:45.164^A262=MD_EURJPY_1768816725164726800^A263=1^A264=1^A265=0^A267=2^A269=0^A269=1^A146=1^A55=EURJPY^A10=246^A
11|8=FIX.4.4^A9=139^A35=V^A49=YOFX2^A56=YOFX^A34=11^A52=20260119-09:58:45.265^A262=MD_GBPJPY_1768816725265713400^A263=1^A264=1^A265=0^A267=2^A269=0^A269=1^A146=1^A55=GBPJPY^A10=205^A
12|8=FIX.4.4^A9=139^A35=V^A49=YOFX2^A56=YOFX^A34=12^A52=20260119-09:58:45.366^A262=MD_AUDJPY_1768816725366732100^A263=1^A264=1^A265=0^A267=2^A269=0^A269=1^A146=1^A55=AUDJPY^A10=210^A
13|8=FIX.4.4^A9=139^A35=V^A49=YOFX2^A56=YOFX^A34=13^A52=20260119-09:58:45.467^A262=MD_AUDCAD_1768816725467355000^A263=1^A264=1^A265=0^A267=2^A269=0^A269=1^A146=1^A55=AUDCAD^A10=129^A
14|8=FIX.4.4^A9=139^A35=V^A49=YOFX2^A56=YOFX^A34=14^A52=20260119-09:58:45.567^A262=MD_AUDCHF_1768816725567866300^A263=1^A264=1^A265=0^A267=2^A269=0^A269=1^A146=1^A55=AUDCHF^A10=160^A
15|8=FIX.4.4^A9=139^A35=V^A49=YOFX2^A56=YOFX^A34=15^A52=20260119-09:58:45.668^A262=MD_AUDNZD_1768816725668832400^A263=1^A264=1^A265=0^A267=2^A269=0^A269=1^A146=1^A55=AUDNZD^A10=213^A
16|8=FIX.4.4^A9=139^A35=V^A49=YOFX2^A56=YOFX^A34=16^A52=20260119-09:58:45.769^A262=MD_AUDSGD_1768816725769518300^A263=1^A264=1^A265=0^A267=2^A269=0^A269=1^A146=1^A55=AUDSGD^A10=190^A
17|8=FIX.4.4^A9=139^A35=V^A49=YOFX2^A56=YOFX^A34=17^A52=20260119-09:58:45.870^A262=MD_AUDHKD_1768816725870552000^A263=1^A264=1^A265=0^A267=2^A269=0^A269=1^A146=1^A55=AUDHKD^A10=158^A
18|8=FIX.4.4^A9=53^A35=0^A49=YOFX2^A56=YOFX^A34=18^A52=20260119-09:59:13.353^A10=213^A
19|8=FIX.4.4^A9=53^A35=0^A49=YOFX2^A56=YOFX^A34=19^A52=20260119-09:59:43.352^A10=216^A
20|8=FIX.4.4^A9=53^A35=0^A49=YOFX2^A56=YOFX^A34=20^A52=20260119-10:00:13.351^A10=182^A
21|8=FIX.4.4^A9=53^A35=0^A49=YOFX2^A56=YOFX^A34=21^A52=20260119-10:00:43.352^A10=187^A
22|8=FIX.4.4^A9=53^A35=0^A49=YOFX2^A56=YOFX^A34=22^A52=20260119-10:01:13.352^A10=186^A
23|8=FIX.4.4^A9=53^A35=0^A49=YOFX2^A56=YOFX^A34=23^A52=20260119-10:01:43.351^A10=189^A
24|8=FIX.4.4^A9=53^A35=0^A49=YOFX2^A56=YOFX^A34=24^A52=20260119-10:02:13.352^A10=189^A
25|8=FIX.4.4^A9=53^A35=0^A49=YOFX2^A56=YOFX^A34=25^A52=20260119-10:02:43.351^A10=192^A
26|8=FIX.4.4^A9=53^A35=0^A49=YOFX2^A56=YOFX^A34=26^A52=20260119-10:03:13.352^A10=192^A
27|8=FIX.4.4^A9=53^A35=0^A49=YOFX2^A56=YOFX^A34=27^A52=20260119-10:03:43.352^A10=196^A
28|8=FIX.4.4^A9=89^A35=A^A49=YOFX2^A56=YOFX^A34=28^A52=20260119-10:04:48.988^A98=0^A108=30^A553=YOFX2^A554=Brand#143^A10=222^A
29|8=FIX.4.4^A9=139^A35=V^A49=YOFX2^A56=YOFX^A34=29^A52=20260119-10:04:50.118^A262=MD_EURUSD_1768817090118454300^A263=1^A264=1^A265=0^A267=2^A269=0^A269=1^A146=1^A55=EURUSD^A10=208^A
30|8=FIX.4.4^A9=139^A35=V^A49=YOFX2^A56=YOFX^A34=30^A52=20260119-10:04:50.219^A262=MD_GBPUSD_1768817090219159400^A263=1^A264=1^A265=0^A267=2^A269=0^A269=1^A146=1^A55=GBPUSD^A10=169^A
31|8=FIX.4.4^A9=139^A35=V^A49=YOFX2^A56=YOFX^A34=31^A52=20260119-10:04:50.320^A262=MD_USDJPY_1768817090320049400^A263=1^A264=1^A265=0^A267=2^A269=0^A269=1^A146=1^A55=USDJPY^A10=206^A
32|8=FIX.4.4^A9=139^A35=V^A49=YOFX2^A56=YOFX^A34=32^A52=20260119-10:04:50.420^A262=MD_AUDUSD_1768817090420981900^A263=1^A264=1^A265=0^A267=2^A269=0^A269=1^A146=1^A55=AUDUSD^A10=169^A
33|8=FIX.4.4^A9=139^A35=V^A49=YOFX2^A56=YOFX^A34=33^A52=20260119-10:04:50.521^A262=MD_USDCAD_1768817090521780200^A263=1^A264=1^A265=0^A267=2^A269=0^A269=1^A146=1^A55=USDCAD^A10=128^A
34|8=FIX.4.4^A9=139^A35=V^A49=YOFX2^A56=YOFX^A34=34^A52=20260119-10:04:50.622^A262=MD_USDCHF_1768817090622673800^A263=1^A264=1^A265=0^A267=2^A269=0^A269=1^A146=1^A55=USDCHF^A10=158^A
35|8=FIX.4.4^A9=139^A35=V^A49=YOFX2^A56=YOFX^A34=35^A52=20260119-10:04:50.722^A262=MD_NZDUSD_1768817090722816200^A263=1^A264=1^A265=0^A267=2^A269=0^A269=1^A146=1^A55=NZDUSD^A10=208^A
36|8=FIX.4.4^A9=139^A35=V^A49=YOFX2^A56=YOFX^A34=36^A52=20260119-10:04:50.823^A262=MD_EURGBP_1768817090823591500^A263=1^A264=1^A265=0^A267=2^A269=0^A269=1^A146=1^A55=EURGBP^A10=178^A
37|8=FIX.4.4^A9=139^A35=V^A49=YOFX2^A56=YOFX^A34=37^A52=20260119-10:04:50.924^A262=MD_EURJPY_1768817090924417300^A263=1^A264=1^A265=0^A267=2^A269=0^A269=1^A146=1^A55=EURJPY^A10=230^A
38|8=FIX.4.4^A9=139^A35=V^A49=YOFX2^A56=YOFX^A34=38^A52=20260119-10:04:51.025^A262=MD_GBPJPY_1768817091025226700^A263=1^A264=1^A265=0^A267=2^A269=0^A269=1^A146=1^A55=GBPJPY^A10=181^A
39|8=FIX.4.4^A9=139^A35=V^A49=YOFX2^A56=YOFX^A34=39^A52=20260119-10:04:51.126^A262=MD_AUDJPY_1768817091126088400^A263=1^A264=1^A265=0^A267=2^A269=0^A269=1^A146=1^A55=AUDJPY^A10=191^A
40|8=FIX.4.4^A9=139^A35=V^A49=YOFX2^A56=YOFX^A34=40^A52=20260119-10:04:51.227^A262=MD_AUDCAD_1768817091227009400^A263=1^A264=1^A265=0^A267=2^A269=0^A269=1^A146=1^A55=AUDCAD^A10=094^A
41|8=FIX.4.4^A9=139^A35=V^A49=YOFX2^A56=YOFX^A34=41^A52=20260119-10:04:51.327^A262=MD_AUDCHF_1768817091327788300^A263=1^A264=1^A265=0^A267=2^A269=0^A269=1^A146=1^A55=AUDCHF^A10=128^A
42|8=FIX.4.4^A9=139^A35=V^A49=YOFX2^A56=YOFX^A34=42^A52=20260119-10:04:51.428^A262=MD_AUDNZD_1768817091428910000^A263=1^A264=1^A265=0^A267=2^A269=0^A269=1^A146=1^A55=AUDNZD^A10=171^A
43|8=FIX.4.4^A9=139^A35=V^A49=YOFX2^A56=YOFX^A34=43^A52=20260119-10:04:51.529^A262=MD_AUDSGD_1768817091529897200^A263=1^A264=1^A265=0^A267=2^A269=0^A269=1^A146=1^A55=AUDSGD^A10=164^A
44|8=FIX.4.4^A9=139^A35=V^A49=YOFX2^A56=YOFX^A34=44^A52=20260119-10:04:51.630^A262=MD_AUDHKD_1768817091630948200^A263=1^A264=1^A265=0^A267=2^A269=0^A269=1^A146=1^A55=AUDHKD^A10=134^A
45|8=FIX.4.4^A9=53^A35=0^A49=YOFX2^A56=YOFX^A34=45^A52=20260119-10:05:19.210^A10=194^A
46|8=FIX.4.4^A9=62^A35=0^A49=YOFX2^A56=YOFX^A34=46^A52=20260119-10:05:26.042^A112=TEST^A10=214^A
47|8=FIX.4.4^A9=53^A35=0^A49=YOFX2^A56=YOFX^A34=47^A52=20260119-10:05:49.210^A10=199^A
49|8=FIX.4.4^A9=89^A35=A^A49=YOFX2^A56=YOFX^A34=49^A52=20260119-10:07:38.960^A98=0^A108=30^A553=YOFX2^A554=Brand#143^A10=217^A
55633|8=FIX.4.4^A9=56^A35=0^A49=YOFX2^A56=YOFX^A34=55633^A52=20260119-10:08:09.260^A10=105^A
112159|8=FIX.4.4^A9=57^A35=0^A49=YOFX2^A56=YOFX^A34=112159^A52=20260119-10:08:39.293^A10=160^A
165909|8=FIX.4.4^A9=57^A35=0^A49=YOFX2^A56=YOFX^A34=165909^A52=20260119-10:09:09.261^A10=164^A
222707|8=FIX.4.4^A9=57^A35=0^A49=YOFX2^A56=YOFX^A34=222707^A52=20260119-10:09:39.266^A10=162^A
276383|8=FIX.4.4^A9=57^A35=0^A49=YOFX2^A56=YOFX^A34=276383^A52=20260119-10:10:09.259^A10=162^A
323236|8=FIX.4.4^A9=93^A35=A^A49=YOFX2^A56=YOFX^A34=323236^A52=20260119-10:10:49.210^A98=0^A108=30^A553=YOFX2^A554=Brand#143^A10=138^A
323237|8=FIX.4.4^A9=143^A35=V^A49=YOFX2^A56=YOFX^A34=323237^A52=20260119-10:10:50.109^A262=MD_EURUSD_1768817450109386700^A263=1^A264=1^A265=0^A267=2^A269=0^A269=1^A146=1^A55=EURUSD^A10=153^A
323238|8=FIX.4.4^A9=143^A35=V^A49=YOFX2^A56=YOFX^A34=323238^A52=20260119-10:10:50.209^A262=MD_GBPUSD_1768817450209839300^A263=1^A264=1^A265=0^A267=2^A269=0^A269=1^A146=1^A55=GBPUSD^A10=117^A
323239|8=FIX.4.4^A9=143^A35=V^A49=YOFX2^A56=YOFX^A34=323239^A52=20260119-10:10:50.310^A262=MD_USDJPY_1768817450310317000^A263=1^A264=1^A265=0^A267=2^A269=0^A269=1^A146=1^A55=USDJPY^A10=144^A
323240|8=FIX.4.4^A9=143^A35=V^A49=YOFX2^A56=YOFX^A34=323240^A52=20260119-10:10:50.411^A262=MD_AUDUSD_1768817450411008400^A263=1^A264=1^A265=0^A267=2^A269=0^A269=1^A146=1^A55=AUDUSD^A10=091^A
323241|8=FIX.4.4^A9=143^A35=V^A49=YOFX2^A56=YOFX^A34=323241^A52=20260119-10:10:50.511^A262=MD_USDCAD_1768817450511641500^A263=1^A264=1^A265=0^A267=2^A269=0^A269=1^A146=1^A55=USDCAD^A10=062^A
323242|8=FIX.4.4^A9=143^A35=V^A49=YOFX2^A56=YOFX^A34=323242^A52=20260119-10:10:50.621^A262=MD_USDCHF_1768817450621713200^A263=1^A264=1^A265=0^A267=2^A269=0^A269=1^A146=1^A55=USDCHF^A10=082^A
323243|8=FIX.4.4^A9=143^A35=V^A49=YOFX2^A56=YOFX^A34=323243^A52=20260119-10:10:50.722^A262=MD_NZDUSD_1768817450722343600^A263=1^A264=1^A265=0^A267=2^A269=0^A269=1^A146=1^A55=NZDUSD^A10=144^A
323244|8=FIX.4.4^A9=143^A35=V^A49=YOFX2^A56=YOFX^A34=323244^A52=20260119-10:10:50.825^A262=MD_EURGBP_1768817450825552700^A263=1^A264=1^A265=0^A267=2^A269=0^A269=1^A146=1^A55=EURGBP^A10=118^A
323245|8=FIX.4.4^A9=143^A35=V^A49=YOFX2^A56=YOFX^A34=323245^A52=20260119-10:10:50.926^A262=MD_EURJPY_1768817450925624000^A263=1^A264=1^A265=0^A267=2^A269=0^A269=1^A146=1^A55=EURJPY^A10=167^A
323246|8=FIX.4.4^A9=143^A35=V^A49=YOFX2^A56=YOFX^A34=323246^A52=20260119-10:10:51.026^A262=MD_GBPJPY_1768817451026167700^A263=1^A264=1^A265=0^A267=2^A269=0^A269=1^A146=1^A55=GBPJPY^A10=124^A
323247|8=FIX.4.4^A9=143^A35=V^A49=YOFX2^A56=YOFX^A34=323247^A52=20260119-10:10:51.129^A262=MD_AUDJPY_1768817451128727400^A263=1^A264=1^A265=0^A267=2^A269=0^A269=1^A146=1^A55=AUDJPY^A10=133^A
323248|8=FIX.4.4^A9=143^A35=V^A49=YOFX2^A56=YOFX^A34=323248^A52=20260119-10:10:51.229^A262=MD_AUDCAD_1768817451229743600^A263=1^A264=1^A265=0^A267=2^A269=0^A269=1^A146=1^A55=AUDCAD^A10=051^A
323249|8=FIX.4.4^A9=143^A35=V^A49=YOFX2^A56=YOFX^A34=323249^A52=20260119-10:10:51.331^A262=MD_AUDCHF_1768817451331233500^A263=1^A264=1^A265=0^A267=2^A269=0^A269=1^A146=1^A55=AUDCHF^A10=051^A
323250|8=FIX.4.4^A9=143^A35=V^A49=YOFX2^A56=YOFX^A34=323250^A52=20260119-10:10:51.432^A262=MD_AUDNZD_1768817451432671800^A263=1^A264=1^A265=0^A267=2^A269=0^A269=1^A146=1^A55=AUDNZD^A10=110^A
323251|8=FIX.4.4^A9=143^A35=V^A49=YOFX2^A56=YOFX^A34=323251^A52=20260119-10:10:51.534^A262=MD_AUDSGD_1768817451534513500^A263=1^A264=1^A265=0^A267=2^A269=0^A269=1^A146=1^A55=AUDSGD^A10=081^A
323252|8=FIX.4.4^A9=143^A35=V^A49=YOFX2^A56=YOFX^A34=323252^A52=20260119-10:10:51.635^A262=MD_AUDHKD_1768817451635399900^A263=1^A264=1^A265=0^A267=2^A269=0^A269=1^A146=1^A55=AUDHKD^A10=088^A
323253|8=FIX.4.4^A9=143^A35=V^A49=YOFX2^A56=YOFX^A34=323253^A52=20260119-10:11:09.223^A262=MD_EURUSD_1768817469223483800^A263=1^A264=1^A265=0^A267=2^A269=0^A269=1^A146=1^A55=EURUSD^A10=159^A
323254|8=FIX.4.4^A9=143^A35=V^A49=YOFX2^A56=YOFX^A34=323254^A52=20260119-10:11:09.274^A262=MD_GBPUSD_1768817469274158100^A263=1^A264=1^A265=0^A267=2^A269=0^A269=1^A146=1^A55=GBPUSD^A10=126^A
323255|8=FIX.4.4^A9=143^A35=V^A49=YOFX2^A56=YOFX^A34=323255^A52=20260119-10:11:09.326^A262=MD_USDJPY_1768817469325538700^A263=1^A264=1^A265=0^A267=2^A269=0^A269=1^A146=1^A55=USDJPY^A10=182^A
323256|8=FIX.4.4^A9=143^A35=V^A49=YOFX2^A56=YOFX^A34=323256^A52=20260119-10:11:09.376^A262=MD_AUDUSD_1768817469376836700^A263=1^A264=1^A265=0^A267=2^A269=0^A269=1^A146=1^A55=AUDUSD^A10=145^A
323257|8=FIX.4.4^A9=143^A35=V^A49=YOFX2^A56=YOFX^A34=323257^A52=20260119-10:11:09.427^A262=MD_USDCAD_1768817469426986500^A263=1^A264=1^A265=0^A267=2^A269=0^A269=1^A146=1^A55=USDCAD^A10=107^A
323258|8=FIX.4.4^A9=143^A35=V^A49=YOFX2^A56=YOFX^A34=323258^A52=20260119-10:11:09.478^A262=MD_USDCHF_1768817469478161700^A263=1^A264=1^A265=0^A267=2^A269=0^A269=1^A146=1^A55=USDCHF^A10=126^A
323259|8=FIX.4.4^A9=143^A35=V^A49=YOFX2^A56=YOFX^A34=323259^A52=20260119-10:11:09.530^A262=MD_NZDUSD_1768817469530975800^A263=1^A264=1^A265=0^A267=2^A269=0^A269=1^A146=1^A55=NZDUSD^A10=173^A
323260|8=FIX.4.4^A9=143^A35=V^A49=YOFX2^A56=YOFX^A34=323260^A52=20260119-10:11:09.582^A262=MD_EURGBP_1768817469581914000^A263=1^A264=1^A265=0^A267=2^A269=0^A269=1^A146=1^A55=EURGBP^A10=125^A
323261|8=FIX.4.4^A9=143^A35=V^A49=YOFX2^A56=YOFX^A34=323261^A52=20260119-10:11:09.633^A262=MD_EURJPY_1768817469633579100^A263=1^A264=1^A265=0^A267=2^A269=0^A269=1^A146=1^A55=EURJPY^A10=181^A
323262|8=FIX.4.4^A9=143^A35=V^A49=YOFX2^A56=YOFX^A34=323262^A52=20260119-10:11:09.690^A262=MD_GBPJPY_1768817469690324600^A263=1^A264=1^A265=0^A267=2^A269=0^A269=1^A146=1^A55=GBPJPY^A10=143^A
323263|8=FIX.4.4^A9=143^A35=V^A49=YOFX2^A56=YOFX^A34=323263^A52=20260119-10:11:09.741^A262=MD_AUDJPY_1768817469741537400^A263=1^A264=1^A265=0^A267=2^A269=0^A269=1^A146=1^A55=AUDJPY^A10=144^A
323264|8=FIX.4.4^A9=143^A35=V^A49=YOFX2^A56=YOFX^A34=323264^A52=20260119-10:11:09.793^A262=MD_AUDCAD_1768817469792982200^A263=1^A264=1^A265=0^A267=2^A269=0^A269=1^A146=1^A55=AUDCAD^A10=074^A
323265|8=FIX.4.4^A9=57^A35=0^A49=YOFX2^A56=YOFX^A34=323265^A52=20260119-10:11:19.471^A10=152^A
323266|8=FIX.4.4^A9=66^A35=0^A49=YOFX2^A56=YOFX^A34=323266^A52=20260119-10:11:26.209^A112=TEST^A10=168^A
323267|8=FIX.4.4^A9=57^A35=0^A49=YOFX2^A56=YOFX^A34=323267^A52=20260119-10:11:49.471^A10=157^A
323268|8=FIX.4.4^A9=143^A35=V^A49=YOFX2^A56=YOFX^A34=323268^A52=20260119-10:12:01.914^A262=MD_EURUSD_1768817521914797000^A263=1^A264=1^A265=0^A267=2^A269=0^A269=1^A146=1^A55=EURUSD^A10=161^A
323270|8=FIX.4.4^A9=93^A35=A^A49=YOFX2^A56=YOFX^A34=323270^A52=20260119-10:15:13.732^A98=0^A108=30^A553=YOFX2^A554=Brand#143^A10=141^A
323271|8=FIX.4.4^A9=57^A35=0^A49=YOFX2^A56=YOFX^A34=323271^A52=20260119-10:15:43.939^A10=159^A
323272|8=FIX.4.4^A9=143^A35=V^A49=YOFX2^A56=YOFX^A34=323272^A52=20260119-10:15:44.467^A262=MD_EURUSD_1768817744467024200^A263=1^A264=1^A265=0^A267=2^A269=0^A269=1^A146=1^A55=EURUSD^A10=164^A
323273|8=FIX.4.4^A9=143^A35=V^A49=YOFX2^A56=YOFX^A34=323273^A52=20260119-10:15:44.518^A262=MD_GBPUSD_1768817744518371300^A263=1^A264=1^A265=0^A267=2^A269=0^A269=1^A146=1^A55=GBPUSD^A10=127^A
323274|8=FIX.4.4^A9=143^A35=V^A49=YOFX2^A56=YOFX^A34=323274^A52=20260119-10:15:44.569^A262=MD_USDJPY_1768817744569296700^A263=1^A264=1^A265=0^A267=2^A269=0^A269=1^A146=1^A55=USDJPY^A10=202^A
323275|8=FIX.4.4^A9=143^A35=V^A49=YOFX2^A56=YOFX^A34=323275^A52=20260119-10:15:44.620^A262=MD_AUDUSD_1768817744620420300^A263=1^A264=1^A265=0^A267=2^A269=0^A269=1^A146=1^A55=AUDUSD^A10=114^A
323276|8=FIX.4.4^A9=143^A35=V^A49=YOFX2^A56=YOFX^A34=323276^A52=20260119-10:15:44.671^A262=MD_USDCAD_1768817744671230900^A263=1^A264=1^A265=0^A267=2^A269=0^A269=1^A146=1^A55=USDCAD^A10=096^A
323277|8=FIX.4.4^A9=143^A35=V^A49=YOFX2^A56=YOFX^A34=323277^A52=20260119-10:15:44.722^A262=MD_USDCHF_1768817744722299900^A263=1^A264=1^A265=0^A267=2^A269=0^A269=1^A146=1^A55=USDCHF^A10=124^A
323278|8=FIX.4.4^A9=143^A35=V^A49=YOFX2^A56=YOFX^A34=323278^A52=20260119-10:15:44.772^A262=MD_NZDUSD_1768817744772665300^A263=1^A264=1^A265=0^A267=2^A269=0^A269=1^A146=1^A55=NZDUSD^A10=180^A
323279|8=FIX.4.4^A9=143^A35=V^A49=YOFX2^A56=YOFX^A34=323279^A52=20260119-10:15:44.824^A262=MD_EURGBP_1768817744823887300^A263=1^A264=1^A265=0^A267=2^A269=0^A269=1^A146=1^A55=EURGBP^A10=144^A
323280|8=FIX.4.4^A9=143^A35=V^A49=YOFX2^A56=YOFX^A34=323280^A52=20260119-10:15:44.875^A262=MD_EURJPY_1768817744875330400^A263=1^A264=1^A265=0^A267=2^A269=0^A269=1^A146=1^A55=EURJPY^A10=185^A
323281|8=FIX.4.4^A9=143^A35=V^A49=YOFX2^A56=YOFX^A34=323281^A52=20260119-10:15:44.926^A262=MD_GBPJPY_1768817744926111800^A263=1^A264=1^A265=0^A267=2^A269=0^A269=1^A146=1^A55=GBPJPY^A10=143^A
323282|8=FIX.4.4^A9=143^A35=V^A49=YOFX2^A56=YOFX^A34=323282^A52=20260119-10:15:44.977^A262=MD_AUDJPY_1768817744977098600^A263=1^A264=1^A265=0^A267=2^A269=0^A269=1^A146=1^A55=AUDJPY^A10=170^A
323283|8=FIX.4.4^A9=143^A35=V^A49=YOFX2^A56=YOFX^A34=323283^A52=20260119-10:15:45.028^A262=MD_AUDCAD_1768817745028030100^A263=1^A264=1^A265=0^A267=2^A269=0^A269=1^A146=1^A55=AUDCAD^A10=042^A
323284|8=FIX.4.4^A9=66^A35=0^A49=YOFX2^A56=YOFX^A34=323284^A52=20260119-10:15:50.772^A112=TEST^A10=174^A
323285|8=FIX.4.4^A9=57^A35=0^A49=YOFX2^A56=YOFX^A34=323285^A52=20260119-10:16:13.939^A10=162^A
323287|8=FIX.4.4^A9=93^A35=A^A49=YOFX2^A56=YOFX^A34=323287^A52=20260119-10:46:08.725^A98=0^A108=30^A553=YOFX2^A554=Brand#143^A10=159^A
323288|8=FIX.4.4^A9=143^A35=V^A49=YOFX2^A56=YOFX^A34=323288^A52=20260119-10:46:09.967^A262=MD_EURUSD_1768819569967428100^A263=1^A264=0^A265=0^A267=2^A269=0^A269=1^A146=1^A55=EURUSD^A10=199^A
323289|8=FIX.4.4^A9=143^A35=V^A49=YOFX2^A56=YOFX^A34=323289^A52=20260119-10:46:10.068^A262=MD_GBPUSD_1768819570068513300^A263=1^A264=0^A265=0^A267=2^A269=0^A269=1^A146=1^A55=GBPUSD^A10=127^A
323290|8=FIX.4.4^A9=143^A35=V^A49=YOFX2^A56=YOFX^A34=323290^A52=20260119-10:46:10.170^A262=MD_USDJPY_1768819570169796400^A263=1^A264=0^A265=0^A267=2^A269=0^A269=1^A146=1^A55=USDJPY^A10=181^A
323291|8=FIX.4.4^A9=57^A35=0^A49=YOFX2^A56=YOFX^A34=323291^A52=20260119-10:46:38.980^A10=165^A
323292|8=FIX.4.4^A9=57^A35=0^A49=YOFX2^A56=YOFX^A34=323292^A52=20260119-10:47:37.475^A10=165^A
323293|8=FIX.4.4^A9=66^A35=0^A49=YOFX2^A56=YOFX^A34=323293^A52=20260119-10:47:37.496^A112=TEST^A10=187^A
323295|8=FIX.4.4^A9=93^A35=A^A49=YOFX2^A56=YOFX^A34=323295^A52=20260119-11:12:30.592^A98=0^A108=30^A553=YOFX2^A554=Brand#143^A10=149^A
324897|8=FIX.4.4^A9=143^A35=V^A49=YOFX2^A56=YOFX^A34=324897^A52=20260119-11:12:31.851^A262=MD_EURUSD_1768821151851247300^A263=1^A264=0^A265=0^A267=2^A269=0^A269=1^A146=1^A55=EURUSD^A10=160^A
325129|8=FIX.4.4^A9=143^A35=V^A49=YOFX2^A56=YOFX^A34=325129^A52=20260119-11:12:31.952^A262=MD_GBPUSD_1768821151952049700^A263=1^A264=0^A265=0^A267=2^A269=0^A269=1^A146=1^A55=GBPUSD^A10=119^A
325453|8=FIX.4.4^A9=143^A35=V^A49=YOFX2^A56=YOFX^A34=325453^A52=20260119-11:12:32.053^A262=MD_USDJPY_1768821152053494900^A263=1^A264=0^A265=0^A267=2^A269=0^A269=1^A146=1^A55=USDJPY^A10=163^A
375411|8=FIX.4.4^A9=57^A35=0^A49=YOFX2^A56=YOFX^A34=375411^A52=20260119-11:13:00.807^A10=148^A
443451|8=FIX.4.4^A9=57^A35=0^A49=YOFX2^A56=YOFX^A34=443451^A52=20260119-11:13:30.807^A10=151^A
1|8=FIX.4.4^A9=88^A35=A^A49=YOFX2^A56=YOFX^A34=1^A52=20260119-11:14:09.246^A98=0^A108=30^A553=YOFX2^A554=Brand#143^A10=150^A
2|8=FIX.4.4^A9=138^A35=V^A49=YOFX2^A56=YOFX^A34=2^A52=20260119-11:14:10.484^A262=MD_EURUSD_1768821250484213500^A263=1^A264=0^A265=0^A267=2^A269=0^A269=1^A146=1^A55=EURUSD^A10=147^A
3|8=FIX.4.4^A9=138^A35=V^A49=YOFX2^A56=YOFX^A34=3^A52=20260119-11:14:10.586^A262=MD_GBPUSD_1768821250586199600^A263=1^A264=0^A265=0^A267=2^A269=0^A269=1^A146=1^A55=GBPUSD^A10=130^A
4|8=FIX.4.4^A9=138^A35=V^A49=YOFX2^A56=YOFX^A34=4^A52=20260119-11:14:10.687^A262=MD_USDJPY_1768821250687711500^A263=1^A264=0^A265=0^A267=2^A269=0^A269=1^A146=1^A55=USDJPY^A10=176^A
5|8=FIX.4.4^A9=52^A35=0^A49=YOFX2^A56=YOFX^A34=5^A52=20260119-11:14:39.468^A10=159^A
6|8=FIX.4.4^A9=138^A35=V^A49=YOFX2^A56=YOFX^A34=6^A52=20260119-11:14:54.074^A262=MD_EURUSD_1768821294074936900^A263=1^A264=0^A265=0^A267=2^A269=0^A269=1^A146=1^A55=EURUSD^A10=173^A
7|8=FIX.4.4^A9=138^A35=V^A49=YOFX2^A56=YOFX^A34=7^A52=20260119-11:14:54.130^A262=MD_GBPUSD_1768821294130084900^A263=1^A264=0^A265=0^A267=2^A269=0^A269=1^A146=1^A55=GBPUSD^A10=116^A
8|8=FIX.4.4^A9=138^A35=V^A49=YOFX2^A56=YOFX^A34=8^A52=20260119-11:14:54.181^A262=MD_USDJPY_1768821294181400800^A263=1^A264=0^A265=0^A267=2^A269=0^A269=1^A146=1^A55=USDJPY^A10=172^A
9|8=FIX.4.4^A9=52^A35=0^A49=YOFX2^A56=YOFX^A34=9^A52=20260119-11:15:09.468^A10=161^A
10|8=FIX.4.4^A9=53^A35=0^A49=YOFX2^A56=YOFX^A34=10^A52=20260119-11:15:39.468^A10=205^A
11|8=FIX.4.4^A9=53^A35=0^A49=YOFX2^A56=YOFX^A34=11^A52=20260119-11:16:09.469^A10=205^A
12|8=FIX.4.4^A9=53^A35=0^A49=YOFX2^A56=YOFX^A34=12^A52=20260119-11:16:39.468^A10=208^A
13|8=FIX.4.4^A9=53^A35=0^A49=YOFX2^A56=YOFX^A34=13^A52=20260119-11:17:09.468^A10=207^A
14|8=FIX.4.4^A9=53^A35=0^A49=YOFX2^A56=YOFX^A34=14^A52=20260119-11:17:39.468^A10=211^A
15|8=FIX.4.4^A9=53^A35=0^A49=YOFX2^A56=YOFX^A34=15^A52=20260119-11:18:09.468^A10=210^A
16|8=FIX.4.4^A9=139^A35=V^A49=YOFX2^A56=YOFX^A34=16^A52=20260119-11:18:10.971^A262=MD_EURUSD_1768821490971851100^A263=1^A264=0^A265=0^A267=2^A269=0^A269=1^A146=1^A55=EURUSD^A10=217^A
17|8=FIX.4.4^A9=139^A35=V^A49=YOFX2^A56=YOFX^A34=17^A52=20260119-11:18:11.022^A262=MD_GBPUSD_1768821491022950700^A263=1^A264=0^A265=0^A267=2^A269=0^A269=1^A146=1^A55=GBPUSD^A10=162^A
18|8=FIX.4.4^A9=139^A35=V^A49=YOFX2^A56=YOFX^A34=18^A52=20260119-11:18:11.073^A262=MD_USDJPY_1768821491073906700^A263=1^A264=0^A265=0^A267=2^A269=0^A269=1^A146=1^A55=USDJPY^A10=228^A
19|8=FIX.4.4^A9=53^A35=0^A49=YOFX2^A56=YOFX^A34=19^A52=20260119-11:18:39.468^A10=217^A
20|8=FIX.4.4^A9=53^A35=0^A49=YOFX2^A56=YOFX^A34=20^A52=20260119-11:19:09.468^A10=207^A
21|8=FIX.4.4^A9=53^A35=0^A49=YOFX2^A56=YOFX^A34=21^A52=20260119-11:19:39.468^A10=211^A
22|8=FIX.4.4^A9=53^A35=0^A49=YOFX2^A56=YOFX^A34=22^A52=20260119-11:20:09.468^A10=201^A
23|8=FIX.4.4^A9=139^A35=V^A49=YOFX2^A56=YOFX^A34=23^A52=20260119-11:20:23.576^A262=MD_EURUSD_1768821623575948000^A263=1^A264=0^A265=0^A267=2^A269=0^A269=1^A146=1^A55=EURUSD^A10=217^A
24|8=FIX.4.4^A9=139^A35=V^A49=YOFX2^A56=YOFX^A34=24^A52=20260119-11:20:23.627^A262=MD_GBPUSD_1768821623627075800^A263=1^A264=0^A265=0^A267=2^A269=0^A269=1^A146=1^A55=GBPUSD^A10=174^A
25|8=FIX.4.4^A9=139^A35=V^A49=YOFX2^A56=YOFX^A34=25^A52=20260119-11:20:23.678^A262=MD_USDJPY_1768821623678012100^A263=1^A264=0^A265=0^A267=2^A269=0^A269=1^A146=1^A55=USDJPY^A10=223^A
26|8=FIX.4.4^A9=53^A35=0^A49=YOFX2^A56=YOFX^A34=26^A52=20260119-11:20:39.468^A10=208^A
27|8=FIX.4.4^A9=53^A35=0^A49=YOFX2^A56=YOFX^A34=27^A52=20260119-11:21:09.468^A10=207^A
28|8=FIX.4.4^A9=53^A35=0^A49=YOFX2^A56=YOFX^A34=28^A52=20260119-11:21:39.468^A10=211^A
29|8=FIX.4.4^A9=53^A35=0^A49=YOFX2^A56=YOFX^A34=29^A52=20260119-11:22:09.468^A10=210^A
30|8=FIX.4.4^A9=53^A35=0^A49=YOFX2^A56=YOFX^A34=30^A52=20260119-11:22:39.468^A10=205^A
31|8=FIX.4.4^A9=53^A35=0^A49=YOFX2^A56=YOFX^A34=31^A52=20260119-11:23:09.468^A10=204^A
32|8=FIX.4.4^A9=53^A35=0^A49=YOFX2^A56=YOFX^A34=32^A52=20260119-11:23:39.468^A10=208^A
33|8=FIX.4.4^A9=53^A35=0^A49=YOFX2^A56=YOFX^A34=33^A52=20260119-11:24:09.468^A10=207^A
34|8=FIX.4.4^A9=53^A35=0^A49=YOFX2^A56=YOFX^A34=34^A52=20260119-11:24:39.468^A10=211^A
35|8=FIX.4.4^A9=53^A35=0^A49=YOFX2^A56=YOFX^A34=35^A52=20260119-11:25:09.468^A10=210^A
36|8=FIX.4.4^A9=53^A35=0^A49=YOFX2^A56=YOFX^A34=36^A52=20260119-11:25:39.468^A10=214^A
37|8=FIX.4.4^A9=53^A35=0^A49=YOFX2^A56=YOFX^A34=37^A52=20260119-11:26:09.468^A10=213^A
38|8=FIX.4.4^A9=53^A35=0^A49=YOFX2^A56=YOFX^A34=38^A52=20260119-11:26:39.468^A10=217^A
39|8=FIX.4.4^A9=53^A35=0^A49=YOFX2^A56=YOFX^A34=39^A52=20260119-11:27:09.469^A10=217^A
1|8=FIX.4.4^A9=88^A35=A^A49=YOFX2^A56=YOFX^A34=1^A52=20260120-06:27:21.675^A98=0^A108=30^A553=YOFX2^A554=Brand#143^A10=150^A
2|8=FIX.4.4^A9=90^A35=x^A49=YOFX2^A56=YOFX^A34=2^A52=20260120-06:27:22.797^A320=SECLIST_1768890442797912400^A559=4^A10=041^A
3|8=FIX.4.4^A9=132^A35=V^A49=YOFX2^A56=YOFX^A34=3^A52=20260120-06:27:24.799^A262=MD_EURUSD_1768890444798737700^A263=1^A264=0^A267=2^A269=0^A269=1^A146=1^A55=EURUSD^A10=177^A
4|8=FIX.4.4^A9=132^A35=V^A49=YOFX2^A56=YOFX^A34=4^A52=20260120-06:27:24.899^A262=MD_GBPUSD_1768890444899947100^A263=1^A264=0^A267=2^A269=0^A269=1^A146=1^A55=GBPUSD^A10=140^A
5|8=FIX.4.4^A9=132^A35=V^A49=YOFX2^A56=YOFX^A34=5^A52=20260120-06:27:25.000^A262=MD_USDJPY_1768890445000991400^A263=1^A264=0^A267=2^A269=0^A269=1^A146=1^A55=USDJPY^A10=145^A
6|8=FIX.4.4^A9=132^A35=V^A49=YOFX2^A56=YOFX^A34=6^A52=20260120-06:27:25.102^A262=MD_USDCHF_1768890445102102000^A263=1^A264=0^A267=2^A269=0^A269=1^A146=1^A55=USDCHF^A10=064^A
7|8=FIX.4.4^A9=132^A35=V^A49=YOFX2^A56=YOFX^A34=7^A52=20260120-06:27:25.203^A262=MD_USDCAD_1768890445203334800^A263=1^A264=0^A267=2^A269=0^A269=1^A146=1^A55=USDCAD^A10=066^A
8|8=FIX.4.4^A9=132^A35=V^A49=YOFX2^A56=YOFX^A34=8^A52=20260120-06:27:25.303^A262=MD_AUDUSD_1768890445303984100^A263=1^A264=0^A267=2^A269=0^A269=1^A146=1^A55=AUDUSD^A10=109^A
9|8=FIX.4.4^A9=132^A35=V^A49=YOFX2^A56=YOFX^A34=9^A52=20260120-06:27:25.405^A262=MD_NZDUSD_1768890445405110500^A263=1^A264=0^A267=2^A269=0^A269=1^A146=1^A55=NZDUSD^A10=137^A
10|8=FIX.4.4^A9=133^A35=V^A49=YOFX2^A56=YOFX^A34=10^A52=20260120-06:27:25.506^A262=MD_EURGBP_1768890445506111100^A263=1^A264=0^A267=2^A269=0^A269=1^A146=1^A55=EURGBP^A10=141^A
11|8=FIX.4.4^A9=133^A35=V^A49=YOFX2^A56=YOFX^A34=11^A52=20260120-06:27:25.607^A262=MD_EURJPY_1768890445607249700^A263=1^A264=0^A267=2^A269=0^A269=1^A146=1^A55=EURJPY^A10=216^A
12|8=FIX.4.4^A9=133^A35=V^A49=YOFX2^A56=YOFX^A34=12^A52=20260120-06:27:25.708^A262=MD_GBPJPY_1768890445707947300^A263=1^A264=0^A267=2^A269=0^A269=1^A146=1^A55=GBPJPY^A10=183^A
13|8=FIX.4.4^A9=133^A35=V^A49=YOFX2^A56=YOFX^A34=13^A52=20260120-06:27:25.809^A262=MD_EURAUD_1768890445809172300^A263=1^A264=0^A267=2^A269=0^A269=1^A146=1^A55=EURAUD^A10=167^A
14|8=FIX.4.4^A9=133^A35=V^A49=YOFX2^A56=YOFX^A34=14^A52=20260120-06:27:25.910^A262=MD_EURCAD_1768890445910199900^A263=1^A264=0^A267=2^A269=0^A269=1^A146=1^A55=EURCAD^A10=133^A
15|8=FIX.4.4^A9=133^A35=V^A49=YOFX2^A56=YOFX^A34=15^A52=20260120-06:27:26.011^A262=MD_EURCHF_1768890446011171900^A263=1^A264=0^A267=2^A269=0^A269=1^A146=1^A55=EURCHF^A10=128^A
16|8=FIX.4.4^A9=133^A35=V^A49=YOFX2^A56=YOFX^A34=16^A52=20260120-06:27:26.111^A262=MD_AUDCAD_1768890446111546800^A263=1^A264=0^A267=2^A269=0^A269=1^A146=1^A55=AUDCAD^A10=082^A
17|8=FIX.4.4^A9=133^A35=V^A49=YOFX2^A56=YOFX^A34=17^A52=20260120-06:27:26.212^A262=MD_AUDCHF_1768890446212635500^A263=1^A264=0^A267=2^A269=0^A269=1^A146=1^A55=AUDCHF^A10=101^A
18|8=FIX.4.4^A9=133^A35=V^A49=YOFX2^A56=YOFX^A34=18^A52=20260120-06:27:26.313^A262=MD_AUDJPY_1768890446313793200^A263=1^A264=0^A267=2^A269=0^A269=1^A146=1^A55=AUDJPY^A10=176^A
19|8=FIX.4.4^A9=133^A35=V^A49=YOFX2^A56=YOFX^A34=19^A52=20260120-06:27:26.414^A262=MD_AUDNZD_1768890446414629500^A263=1^A264=0^A267=2^A269=0^A269=1^A146=1^A55=AUDNZD^A10=168^A
20|8=FIX.4.4^A9=133^A35=V^A49=YOFX2^A56=YOFX^A34=20^A52=20260120-06:27:26.515^A262=MD_CADCHF_1768890446515343600^A263=1^A264=0^A267=2^A269=0^A269=1^A146=1^A55=CADCHF^A10=068^A
21|8=FIX.4.4^A9=133^A35=V^A49=YOFX2^A56=YOFX^A34=21^A52=20260120-06:27:26.616^A262=MD_CADJPY_1768890446616384200^A263=1^A264=0^A267=2^A269=0^A269=1^A146=1^A55=CADJPY^A10=142^A
22|8=FIX.4.4^A9=133^A35=V^A49=YOFX2^A56=YOFX^A34=22^A52=20260120-06:27:26.716^A262=MD_CHFJPY_1768890446716750900^A263=1^A264=0^A267=2^A269=0^A269=1^A146=1^A55=CHFJPY^A10=167^A
23|8=FIX.4.4^A9=133^A35=V^A49=YOFX2^A56=YOFX^A34=23^A52=20260120-06:27:26.817^A262=MD_GBPAUD_1768890446817301000^A263=1^A264=0^A267=2^A269=0^A269=1^A146=1^A55=GBPAUD^A10=121^A
24|8=FIX.4.4^A9=133^A35=V^A49=YOFX2^A56=YOFX^A34=24^A52=20260120-06:27:26.919^A262=MD_GBPCAD_1768890446919053400^A263=1^A264=0^A267=2^A269=0^A269=1^A146=1^A55=GBPCAD^A10=100^A
25|8=FIX.4.4^A9=133^A35=V^A49=YOFX2^A56=YOFX^A34=25^A52=20260120-06:27:27.019^A262=MD_GBPCHF_1768890447019811800^A263=1^A264=0^A267=2^A269=0^A269=1^A146=1^A55=GBPCHF^A10=109^A
26|8=FIX.4.4^A9=133^A35=V^A49=YOFX2^A56=YOFX^A34=26^A52=20260120-06:27:27.120^A262=MD_GBPNZD_1768890447120569300^A263=1^A264=0^A267=2^A269=0^A269=1^A146=1^A55=GBPNZD^A10=155^A
27|8=FIX.4.4^A9=133^A35=V^A49=YOFX2^A56=YOFX^A34=27^A52=20260120-06:27:27.221^A262=MD_NZDCAD_1768890447221427600^A263=1^A264=0^A267=2^A269=0^A269=1^A146=1^A55=NZDCAD^A10=122^A
28|8=FIX.4.4^A9=133^A35=V^A49=YOFX2^A56=YOFX^A34=28^A52=20260120-06:27:27.322^A262=MD_NZDCHF_1768890447322623900^A263=1^A264=0^A267=2^A269=0^A269=1^A146=1^A55=NZDCHF^A10=146^A
29|8=FIX.4.4^A9=133^A35=V^A49=YOFX2^A56=YOFX^A34=29^A52=20260120-06:27:27.423^A262=MD_NZDJPY_1768890447423401200^A263=1^A264=0^A267=2^A269=0^A269=1^A146=1^A55=NZDJPY^A10=206^A
30|8=FIX.4.4^A9=133^A35=V^A49=YOFX2^A56=YOFX^A34=30^A52=20260120-06:27:27.524^A262=MD_XAUUSD_1768890447524453400^A263=1^A264=0^A267=2^A269=0^A269=1^A146=1^A55=XAUUSD^A10=201^A
31|8=FIX.4.4^A9=133^A35=V^A49=YOFX2^A56=YOFX^A34=31^A52=20260120-06:27:27.625^A262=MD_XAGUSD_1768890447625794800^A263=1^A264=0^A267=2^A269=0^A269=1^A146=1^A55=XAGUSD^A10=190^A
32|8=FIX.4.4^A9=53^A35=0^A49=YOFX2^A56=YOFX^A34=32^A52=20260120-06:27:51.899^A10=210^A
33|8=FIX.4.4^A9=53^A35=0^A49=YOFX2^A56=YOFX^A34=33^A52=20260120-06:28:21.899^A10=209^A
34|8=FIX.4.4^A9=53^A35=0^A49=YOFX2^A56=YOFX^A34=34^A52=20260120-06:28:51.899^A10=213^A
35|8=FIX.4.4^A9=53^A35=0^A49=YOFX2^A56=YOFX^A34=35^A52=20260120-06:29:21.899^A10=212^A
36|8=FIX.4.4^A9=53^A35=0^A49=YOFX2^A56=YOFX^A34=36^A52=20260120-06:29:51.900^A10=199^A
37|8=FIX.4.4^A9=53^A35=0^A49=YOFX2^A56=YOFX^A34=37^A52=20260120-06:30:21.899^A10=206^A
39|8=FIX.4.4^A9=89^A35=A^A49=YOFX2^A56=YOFX^A34=39^A52=20260120-06:52:36.156^A98=0^A108=30^A553=YOFX2^A554=Brand#143^A10=208^A
40|8=FIX.4.4^A9=91^A35=x^A49=YOFX2^A56=YOFX^A34=40^A52=20260120-06:52:37.377^A320=SECLIST_1768891957377610100^A559=4^A10=088^A
41|8=FIX.4.4^A9=124^A35=c^A49=YOFX2^A56=YOFX^A34=41^A52=20260120-06:52:39.378^A320=SECDEF_EURUSD_1768891959378849900^A321=0^A55=EURUSD^A167=FXSPOT^A460=4^A10=146^A
42|8=FIX.4.4^A9=166^A35=V^A49=YOFX2^A56=YOFX^A34=42^A52=20260120-06:52:39.879^A262=MD_EURUSD_1768891959879236600^A263=1^A264=0^A267=2^A269=0^A269=1^A146=1^A55=EURUSD^A460=4^A167=FXSPOT^A207=YOFX^A15=USD^A10=108^A
43|8=FIX.4.4^A9=124^A35=c^A49=YOFX2^A56=YOFX^A34=43^A52=20260120-06:52:39.980^A320=SECDEF_GBPUSD_1768891959980052600^A321=0^A55=GBPUSD^A167=FXSPOT^A460=4^A10=091^A
44|8=FIX.4.4^A9=166^A35=V^A49=YOFX2^A56=YOFX^A34=44^A52=20260120-06:52:40.482^A262=MD_GBPUSD_1768891960482212800^A263=1^A264=0^A267=2^A269=0^A269=1^A146=1^A55=GBPUSD^A460=4^A167=FXSPOT^A207=YOFX^A15=USD^A10=032^A
45|8=FIX.4.4^A9=124^A35=c^A49=YOFX2^A56=YOFX^A34=45^A52=20260120-06:52:40.583^A320=SECDEF_USDJPY_1768891960583036900^A321=0^A55=USDJPY^A167=FXSPOT^A460=4^A10=132^A
46|8=FIX.4.4^A9=166^A35=V^A49=YOFX2^A56=YOFX^A34=46^A52=20260120-06:52:41.084^A262=MD_USDJPY_1768891961084138100^A263=1^A264=0^A267=2^A269=0^A269=1^A146=1^A55=USDJPY^A460=4^A167=FXSPOT^A207=YOFX^A15=USD^A10=084^A
47|8=FIX.4.4^A9=124^A35=c^A49=YOFX2^A56=YOFX^A34=47^A52=20260120-06:52:41.185^A320=SECDEF_USDCHF_1768891961185030900^A321=0^A55=USDCHF^A167=FXSPOT^A460=4^A10=058^A
48|8=FIX.4.4^A9=166^A35=V^A49=YOFX2^A56=YOFX^A34=48^A52=20260120-06:52:41.686^A262=MD_USDCHF_1768891961686231600^A263=1^A264=0^A267=2^A269=0^A269=1^A146=1^A55=USDCHF^A460=4^A167=FXSPOT^A207=YOFX^A15=USD^A10=033^A
49|8=FIX.4.4^A9=124^A35=c^A49=YOFX2^A56=YOFX^A34=49^A52=20260120-06:52:41.787^A320=SECDEF_USDCAD_1768891961787228500^A321=0^A55=USDCAD^A167=FXSPOT^A460=4^A10=063^A
50|8=FIX.4.4^A9=166^A35=V^A49=YOFX2^A56=YOFX^A34=50^A52=20260120-06:52:42.288^A262=MD_USDCAD_1768891962288423300^A263=1^A264=0^A267=2^A269=0^A269=1^A146=1^A55=USDCAD^A460=4^A167=FXSPOT^A207=YOFX^A15=USD^A10=006^A
51|8=FIX.4.4^A9=124^A35=c^A49=YOFX2^A56=YOFX^A34=51^A52=20260120-06:52:42.389^A320=SECDEF_AUDUSD_1768891962389705400^A321=0^A55=AUDUSD^A167=FXSPOT^A460=4^A10=089^A
52|8=FIX.4.4^A9=166^A35=V^A49=YOFX2^A56=YOFX^A34=52^A52=20260120-06:52:42.891^A262=MD_AUDUSD_1768891962891102000^A263=1^A264=0^A267=2^A269=0^A269=1^A146=1^A55=AUDUSD^A460=4^A167=FXSPOT^A207=YOFX^A15=USD^A10=035^A
53|8=FIX.4.4^A9=124^A35=c^A49=YOFX2^A56=YOFX^A34=53^A52=20260120-06:52:42.991^A320=SECDEF_NZDUSD_1768891962991658300^A321=0^A55=NZDUSD^A167=FXSPOT^A460=4^A10=131^A
54|8=FIX.4.4^A9=166^A35=V^A49=YOFX2^A56=YOFX^A34=54^A52=20260120-06:52:43.491^A262=MD_NZDUSD_1768891963491861000^A263=1^A264=0^A267=2^A269=0^A269=1^A146=1^A55=NZDUSD^A460=4^A167=FXSPOT^A207=YOFX^A15=USD^A10=079^A
55|8=FIX.4.4^A9=124^A35=c^A49=YOFX2^A56=YOFX^A34=55^A52=20260120-06:52:43.592^A320=SECDEF_EURGBP_1768891963592382100^A321=0^A55=EURGBP^A167=FXSPOT^A460=4^A10=083^A
56|8=FIX.4.4^A9=166^A35=V^A49=YOFX2^A56=YOFX^A34=56^A52=20260120-06:52:44.093^A262=MD_EURGBP_1768891964093395900^A263=1^A264=0^A267=2^A269=0^A269=1^A146=1^A55=EURGBP^A460=4^A167=FXSPOT^A207=YOFX^A15=USD^A10=052^A
57|8=FIX.4.4^A9=124^A35=c^A49=YOFX2^A56=YOFX^A34=57^A52=20260120-06:52:44.194^A320=SECDEF_EURJPY_1768891964194433500^A321=0^A55=EURJPY^A167=FXSPOT^A460=4^A10=136^A
58|8=FIX.4.4^A9=166^A35=V^A49=YOFX2^A56=YOFX^A34=58^A52=20260120-06:52:44.696^A262=MD_EURJPY_1768891964695682600^A263=1^A264=0^A267=2^A269=0^A269=1^A146=1^A55=EURJPY^A460=4^A167=FXSPOT^A207=YOFX^A15=USD^A10=119^A
59|8=FIX.4.4^A9=124^A35=c^A49=YOFX2^A56=YOFX^A34=59^A52=20260120-06:52:44.797^A320=SECDEF_GBPJPY_1768891964797178400^A321=0^A55=GBPJPY^A167=FXSPOT^A460=4^A10=123^A
60|8=FIX.4.4^A9=166^A35=V^A49=YOFX2^A56=YOFX^A34=60^A52=20260120-06:52:45.298^A262=MD_GBPJPY_1768891965298156700^A263=1^A264=0^A267=2^A269=0^A269=1^A146=1^A55=GBPJPY^A460=4^A167=FXSPOT^A207=YOFX^A15=USD^A10=070^A
61|8=FIX.4.4^A9=124^A35=c^A49=YOFX2^A56=YOFX^A34=61^A52=20260120-06:52:45.399^A320=SECDEF_EURAUD_1768891965399191800^A321=0^A55=EURAUD^A167=FXSPOT^A460=4^A10=101^A
62|8=FIX.4.4^A9=166^A35=V^A49=YOFX2^A56=YOFX^A34=62^A52=20260120-06:52:45.900^A262=MD_EURAUD_1768891965899847800^A263=1^A264=0^A267=2^A269=0^A269=1^A146=1^A55=EURAUD^A460=4^A167=FXSPOT^A207=YOFX^A15=USD^A10=065^A
63|8=FIX.4.4^A9=124^A35=c^A49=YOFX2^A56=YOFX^A34=63^A52=20260120-06:52:46.000^A320=SECDEF_EURCAD_1768891966000519200^A321=0^A55=EURCAD^A167=FXSPOT^A460=4^A10=025^A
64|8=FIX.4.4^A9=166^A35=V^A49=YOFX2^A56=YOFX^A34=64^A52=20260120-06:52:46.501^A262=MD_EURCAD_1768891966501641300^A263=1^A264=0^A267=2^A269=0^A269=1^A146=1^A55=EURCAD^A460=4^A167=FXSPOT^A207=YOFX^A15=USD^A10=253^A
65|8=FIX.4.4^A9=124^A35=c^A49=YOFX2^A56=YOFX^A34=65^A52=20260120-06:52:46.602^A320=SECDEF_EURCHF_1768891966602738500^A321=0^A55=EURCHF^A167=FXSPOT^A460=4^A10=067^A
66|8=FIX.4.4^A9=166^A35=V^A49=YOFX2^A56=YOFX^A34=66^A52=20260120-06:52:47.103^A262=MD_EURCHF_1768891967103754100^A263=1^A264=0^A267=2^A269=0^A269=1^A146=1^A55=EURCHF^A460=4^A167=FXSPOT^A207=YOFX^A15=USD^A10=018^A
67|8=FIX.4.4^A9=124^A35=c^A49=YOFX2^A56=YOFX^A34=67^A52=20260120-06:52:47.204^A320=SECDEF_AUDCAD_1768891967204727200^A321=0^A55=AUDCAD^A167=FXSPOT^A460=4^A10=008^A
68|8=FIX.4.4^A9=166^A35=V^A49=YOFX2^A56=YOFX^A34=68^A52=20260120-06:52:47.705^A262=MD_AUDCAD_1768891967705972200^A263=1^A264=0^A267=2^A269=0^A269=1^A146=1^A55=AUDCAD^A460=4^A167=FXSPOT^A207=YOFX^A15=USD^A10=241^A
69|8=FIX.4.4^A9=124^A35=c^A49=YOFX2^A56=YOFX^A34=69^A52=20260120-06:52:47.806^A320=SECDEF_AUDCHF_1768891967806710500^A321=0^A55=AUDCHF^A167=FXSPOT^A460=4^A10=039^A
70|8=FIX.4.4^A9=166^A35=V^A49=YOFX2^A56=YOFX^A34=70^A52=20260120-06:52:48.307^A262=MD_AUDCHF_1768891968307518500^A263=1^A264=0^A267=2^A269=0^A269=1^A146=1^A55=AUDCHF^A460=4^A167=FXSPOT^A207=YOFX^A15=USD^A10=249^A
71|8=FIX.4.4^A9=124^A35=c^A49=YOFX2^A56=YOFX^A34=71^A52=20260120-06:52:48.409^A320=SECDEF_AUDJPY_1768891968409640700^A321=0^A55=AUDJPY^A167=FXSPOT^A460=4^A10=104^A
72|8=FIX.4.4^A9=166^A35=V^A49=YOFX2^A56=YOFX^A34=72^A52=20260120-06:52:48.910^A262=MD_AUDJPY_1768891968910533400^A263=1^A264=0^A267=2^A269=0^A269=1^A146=1^A55=AUDJPY^A460=4^A167=FXSPOT^A207=YOFX^A15=USD^A10=059^A
73|8=FIX.4.4^A9=124^A35=c^A49=YOFX2^A56=YOFX^A34=73^A52=20260120-06:52:49.011^A320=SECDEF_AUDNZD_1768891969011276700^A321=0^A55=AUDNZD^A167=FXSPOT^A460=4^A10=077^A
74|8=FIX.4.4^A9=166^A35=V^A49=YOFX2^A56=YOFX^A34=74^A52=20260120-06:52:49.512^A262=MD_AUDNZD_1768891969512412700^A263=1^A264=0^A267=2^A269=0^A269=1^A146=1^A55=AUDNZD^A460=4^A167=FXSPOT^A207=YOFX^A15=USD^A10=044^A
75|8=FIX.4.4^A9=124^A35=c^A49=YOFX2^A56=YOFX^A34=75^A52=20260120-06:52:49.613^A320=SECDEF_CADCHF_1768891969613426500^A321=0^A55=CADCHF^A167=FXSPOT^A460=4^A10=000^A
76|8=FIX.4.4^A9=166^A35=V^A49=YOFX2^A56=YOFX^A34=76^A52=20260120-06:52:50.114^A262=MD_CADCHF_1768891970114623900^A263=1^A264=0^A267=2^A269=0^A269=1^A146=1^A55=CADCHF^A460=4^A167=FXSPOT^A207=YOFX^A15=USD^A10=198^A
77|8=FIX.4.4^A9=124^A35=c^A49=YOFX2^A56=YOFX^A34=77^A52=20260120-06:52:50.215^A320=SECDEF_CADJPY_1768891970215454400^A321=0^A55=CADJPY^A167=FXSPOT^A460=4^A10=050^A
78|8=FIX.4.4^A9=166^A35=V^A49=YOFX2^A56=YOFX^A34=78^A52=20260120-06:52:50.716^A262=MD_CADJPY_1768891970716346200^A263=1^A264=0^A267=2^A269=0^A269=1^A146=1^A55=CADJPY^A460=4^A167=FXSPOT^A207=YOFX^A15=USD^A10=023^A
79|8=FIX.4.4^A9=124^A35=c^A49=YOFX2^A56=YOFX^A34=79^A52=20260120-06:52:50.817^A320=SECDEF_CHFJPY_1768891970817317100^A321=0^A55=CHFJPY^A167=FXSPOT^A460=4^A10=081^A
80|8=FIX.4.4^A9=166^A35=V^A49=YOFX2^A56=YOFX^A34=80^A52=20260120-06:52:51.318^A262=MD_CHFJPY_1768891971318329100^A263=1^A264=0^A267=2^A269=0^A269=1^A146=1^A55=CHFJPY^A460=4^A167=FXSPOT^A207=YOFX^A15=USD^A10=032^A
81|8=FIX.4.4^A9=124^A35=c^A49=YOFX2^A56=YOFX^A34=81^A52=20260120-06:52:51.419^A320=SECDEF_GBPAUD_1768891971419085700^A321=0^A55=GBPAUD^A167=FXSPOT^A460=4^A10=046^A
82|8=FIX.4.4^A9=166^A35=V^A49=YOFX2^A56=YOFX^A34=82^A52=20260120-06:52:51.919^A262=MD_GBPAUD_1768891971919854900^A263=1^A264=0^A267=2^A269=0^A269=1^A146=1^A55=GBPAUD^A460=4^A167=FXSPOT^A207=YOFX^A15=USD^A10=025^A
83|8=FIX.4.4^A9=124^A35=c^A49=YOFX2^A56=YOFX^A34=83^A52=20260120-06:52:52.020^A320=SECDEF_GBPCAD_1768891972020886200^A321=0^A55=GBPCAD^A167=FXSPOT^A460=4^A10=250^A
84|8=FIX.4.4^A9=166^A35=V^A49=YOFX2^A56=YOFX^A34=84^A52=20260120-06:52:52.522^A262=MD_GBPCAD_1768891972522138600^A263=1^A264=0^A267=2^A269=0^A269=1^A146=1^A55=GBPCAD^A460=4^A167=FXSPOT^A207=YOFX^A15=USD^A10=221^A
85|8=FIX.4.4^A9=124^A35=c^A49=YOFX2^A56=YOFX^A34=85^A52=20260120-06:52:52.622^A320=SECDEF_GBPCHF_1768891972622339800^A321=0^A55=GBPCHF^A167=FXSPOT^A460=4^A10=029^A
86|8=FIX.4.4^A9=166^A35=V^A49=YOFX2^A56=YOFX^A34=86^A52=20260120-06:52:53.123^A262=MD_GBPCHF_1768891973123583200^A263=1^A264=0^A267=2^A269=0^A269=1^A146=1^A55=GBPCHF^A460=4^A167=FXSPOT^A207=YOFX^A15=USD^A10=237^A
87|8=FIX.4.4^A9=124^A35=c^A49=YOFX2^A56=YOFX^A34=87^A52=20260120-06:52:53.224^A320=SECDEF_GBPNZD_1768891973224455900^A321=0^A55=GBPNZD^A167=FXSPOT^A460=4^A10=083^A
88|8=FIX.4.4^A9=166^A35=V^A49=YOFX2^A56=YOFX^A34=88^A52=20260120-06:52:53.725^A262=MD_GBPNZD_1768891973725138700^A263=1^A264=0^A267=2^A269=0^A269=1^A146=1^A55=GBPNZD^A460=4^A167=FXSPOT^A207=YOFX^A15=USD^A10=054^A
89|8=FIX.4.4^A9=124^A35=c^A49=YOFX2^A56=YOFX^A34=89^A52=20260120-06:52:53.825^A320=SECDEF_NZDCAD_1768891973825992000^A321=0^A55=NZDCAD^A167=FXSPOT^A460=4^A10=062^A
90|8=FIX.4.4^A9=166^A35=V^A49=YOFX2^A56=YOFX^A34=90^A52=20260120-06:52:54.326^A262=MD_NZDCAD_1768891974326893600^A263=1^A264=0^A267=2^A269=0^A269=1^A146=1^A55=NZDCAD^A460=4^A167=FXSPOT^A207=YOFX^A15=USD^A10=016^A
91|8=FIX.4.4^A9=124^A35=c^A49=YOFX2^A56=YOFX^A34=91^A52=20260120-06:52:54.427^A320=SECDEF_NZDCHF_1768891974427765400^A321=0^A55=NZDCHF^A167=FXSPOT^A460=4^A10=073^A
92|8=FIX.4.4^A9=166^A35=V^A49=YOFX2^A56=YOFX^A34=92^A52=20260120-06:52:54.928^A262=MD_NZDCHF_1768891974928563500^A263=1^A264=0^A267=2^A269=0^A269=1^A146=1^A55=NZDCHF^A460=4^A167=FXSPOT^A207=YOFX^A15=USD^A10=045^A
93|8=FIX.4.4^A9=124^A35=c^A49=YOFX2^A56=YOFX^A34=93^A52=20260120-06:52:55.029^A320=SECDEF_NZDJPY_1768891975029247100^A321=0^A55=NZDJPY^A167=FXSPOT^A460=4^A10=133^A
94|8=FIX.4.4^A9=166^A35=V^A49=YOFX2^A56=YOFX^A34=94^A52=20260120-06:52:55.530^A262=MD_NZDJPY_1768891975530341200^A263=1^A264=0^A267=2^A269=0^A269=1^A146=1^A55=NZDJPY^A460=4^A167=FXSPOT^A207=YOFX^A15=USD^A10=086^A
95|8=FIX.4.4^A9=124^A35=c^A49=YOFX2^A56=YOFX^A34=95^A52=20260120-06:52:55.631^A320=SECDEF_XAUUSD_1768891975631153600^A321=0^A55=XAUUSD^A167=FXSPOT^A460=4^A10=124^A
96|8=FIX.4.4^A9=166^A35=V^A49=YOFX2^A56=YOFX^A34=96^A52=20260120-06:52:56.132^A262=MD_XAUUSD_1768891976132080600^A263=1^A264=0^A267=2^A269=0^A269=1^A146=1^A55=XAUUSD^A460=4^A167=FXSPOT^A207=YOFX^A15=USD^A10=080^A
97|8=FIX.4.4^A9=124^A35=c^A49=YOFX2^A56=YOFX^A34=97^A52=20260120-06:52:56.232^A320=SECDEF_XAGUSD_1768891976232792400^A321=0^A55=XAGUSD^A167=FXSPOT^A460=4^A10=101^A
98|8=FIX.4.4^A9=166^A35=V^A49=YOFX2^A56=YOFX^A34=98^A52=20260120-06:52:56.734^A262=MD_XAGUSD_1768891976734032800^A263=1^A264=0^A267=2^A269=0^A269=1^A146=1^A55=XAGUSD^A460=4^A167=FXSPOT^A207=YOFX^A15=USD^A10=069^A
99|8=FIX.4.4^A9=53^A35=0^A49=YOFX2^A56=YOFX^A34=99^A52=20260120-06:53:06.369^A10=214^A
100|8=FIX.4.4^A9=63^A35=0^A49=YOFX2^A56=YOFX^A34=100^A52=20260120-06:53:13.195^A112=TEST^A10=003^A
101|8=FIX.4.4^A9=54^A35=0^A49=YOFX2^A56=YOFX^A34=101^A52=20260120-06:53:36.374^A10=246^A
