1|8=FIX.4.4^A9=88^A35=A^A49=YOFX2^A56=YOFX^A34=1^A52=20260119-11:27:06.468^A98=0^A108=30^A553=YOFX2^A554=Brand#143^A10=157^A
2|8=FIX.4.4^A9=138^A35=V^A49=YOFX2^A56=YOFX^A34=2^A52=20260119-11:27:15.152^A262=MD_XAUUSD_1768822035152001900^A263=1^A264=0^A265=0^A267=2^A269=0^A269=1^A146=1^A55=XAUUSD^A10=145^A
3|8=FIX.4.4^A9=52^A35=0^A49=YOFX2^A56=YOFX^A34=3^A52=20260119-11:27:36.778^A10=162^A
4|8=FIX.4.4^A9=52^A35=0^A49=YOFX2^A56=YOFX^A34=4^A52=20260119-11:28:06.778^A10=161^A
